:020000040000FA
:0400000077EF31F075
:1060D0001200838283901200838083921200000E4C
:1060E000026E0A0E016E82EC30F01200036E6FEC4D
:1060F00030F058500318816E83868394838800D0D3
:106100008398120087EF30F00106D8A002060150F4
:106110000210D8A48EEF30F090EF30F084EF30F022
:106120001200562ABF0E566498EF30F09AEF30F006
:106130009CEF30F0B80E566E000E20EC31F01200DD
:10614000036E6FEC30F003C081FF839683948388E5
:10615000000E026E010E016E82EC30F08398120088
:10616000056E080E0560B7EF30F0B9EF30F0BFEF05
:1061700030F00550B80F566E000E20EC31F01200D2
:10618000CB68020EBE6EBD98BD9A9494030ECA12DF
:10619000BD80BD82BD84BD86000ECC6ECA84120057
:1061A000DBEF30F0010E026E2C0E016E82EC30F04F
:1061B0000306D8A0040603500410D8A4E2EF30F080
:1061C000E4EF30F0D2EF30F01200F0EF30F00AC020
:1061D000D9FF0BC0DAFFDF503FEC34F00A4A0B2A3C
:1061E0000AC0D9FF0BC0DAFFDF50D8A4FAEF30F0B5
:0A61F000FCEF30F0E7EF30F0120092
:1061FB004F01590104011301AF00BE002D00370000
:10620B000F001900414443423539374320202031D8
:10621B002020202031323341343536423738394350
:10622B002A3023442300320064005500010004008F
:10623B000100280002046E0450D8B427EF31F02976
:10624B00EF31F031EF31F00404D8A42FEF31F031FE
:10625B00EF31F049EF31F00450D8A437EF31F0397A
:10626B00EF31F03DEF31F069EC30F03FEF31F06C96
:10627B00EC30F004C055F0400E576E5650A0EC3089
:10628B00F05750A0EC30F01200000E936EE00E951C
:10629B001669EC30F03F0EA0EC30F06CEC30F03FB8
:1062AB000EA0EC30F0000E046E0A0E036ED0EC3034
:1062BB00F069EC30F0C00EA0EC30F06CEC30F0C0BC
:1062CB000EA0EC30F0000E20EC31F0A4EC31F0001D
:1062DB000E556EB80E566E400E576E000E20EC31FA
:1062EB00F01200FB0EF66E610EF76E000EF86E00EC
:1062FB00EE60F010EE45F00900F5CFEEFFE550E152
:10630B0050FAE1D00EF66E600EF76E000EF86E09C5
:10631B0000F5CF5CF00900F5CF5DF000EEC9F01889
:10632B000EEE6AE806FDE100EE55F0070EEE6AE8A8
:10633B0006FDE1000EF86E0001C3EF39F0000E0709
:10634B006E69EC30F0400EA0EC30F00750B80FA0A7
:10635B00EC30F0000E066E400E0618D8A4B8EF31E4
:10636B00F0BAEF31F0C3EF31F06CEC30F0400EA02F
:10637B00EC30F00750B80FA0EC30F0000E76EC309C
:10638B00F0062A7F0E0664CDEF31F0CFEF31F0B17E
:10639B00EF31F0072A070E0764D6EF31F0D8EF3153
:1063AB00F0A6EF31F0000EB0EC30F0120080BAE145
:1063BB00EF31F0E3EF31F0E9EF31F0000E026E0157
:1063CB000E016E14EF32F084B0EEEF31F0F0EF31DE
:1063DB00F0F6EF31F0000E026E020E016E14EF328A
:1063EB00F084B2FBEF31F0FDEF31F003EF32F00050
:1063FB000E026E030E016E14EF32F084B408EF320E
:10640B00F00AEF32F010EF32F0000E026E040E01C4
:10641B006E14EF32F0000E026E000E016E12002FA2
:10642B00EF32F0000E026E000E016E4DEF32F000F7
:10643B000E026E010E016E4DEF32F0000E026E0277
:10644B000E016E4DEF32F0000E026E030E016E4D1B
:10645B00EF32F001C003F002C004F00450000AD880
:10646B00B43AEF32F04DEF32F00350020AD8B417C2
:10647B00EF32F0060AD8B41DEF32F00C0AD8B42371
:10648B00EF32F0180AD8B429EF32F04DEF32F01298
:10649B0000000E076E69EC30F0400EA0EC30F007F8
:1064AB0050B80FA0EC30F0000E066E400E0618D858
:1064BB00A462EF32F064EF32F06DEF32F06CEC303F
:1064CB00F0400EA0EC30F00750B80FA0EC30F00409
:1064DB00C0F6FF05C0F7FF0800F55076EC30F0046E
:1064EB004A052A062A7F0E06647EEF32F080EF32D1
:1064FB00F05BEF32F0072A070E076487EF32F08963
:10650B00EF32F050EF32F012000A6E080E0A609173
:10651B00EF32F093EF32F0CDEF32F0810E0960994C
:10652B00EF32F09BEF32F0CDEF32F009C001F00209
:10653B006A000E046E400E036E78EC33F001500BC4
:10654B006E09C001F0026A000E046E3F0E036E204E
:10655B00EC33F00150096E0B50D8A4B7EF32F0B901
:10656B00EF32F0BDEF32F069EC30F0BFEF32F06C90
:10657B00EC30F00BC055F00A50B809566E0950407C
:10658B0009576E5750A0EC30F05650A0EC30F0127B
:10659B0000000E096E000E0A6E000E0B6E000E0C44
:1065AB006E0550061007100810D8B4DFEF32F0E17B
:1065BB00EF32F017EF33F0010E0D6EEBEF32F0D838
:1065CB009005360636073608360D2A08AEF0EF3240
:1065DB00F0F2EF32F0E5EF32F0D89009360A360BD5
:1065EB00360C360550015C0650025807500358080C
:1065FB00500458D8A004EF33F006EF33F00FEF330D
:10660B00F00550015E0650025A0750035A08500419
:10661B005A0980D89008320732063205320D2EF215
:10662B00EF32F009C001F00AC002F00BC003F00C0E
:10663B00C004F01200000E066E02BE29EF33F027E5
:10664B00EF33F02FEF33F0016C021ED8B0022A01AA
:10665B000E066E04BE36EF33F034EF33F03AEF3301
:10666B00F0036C041ED8B0042A03500410D8B441B4
:10667B00EF33F043EF33F067EF33F0010E056E4B62
:10668B00EF33F0D89003360436052A04AE50EF33BF
:10669B00F052EF33F047EF33F00350015C0450023C
:1066AB0058D8A05BEF33F05DEF33F061EF33F003BD
:1066BB0050015E0450025AD89004320332052E5218
:1066CB00EF33F00650D8B46DEF33F06FEF33F07358
:1066DB00EF33F0016C021ED8B0022A01C001F002A8
:1066EB00C002F01200000E066E04BE81EF33F07F85
:1066FB00EF33F087EF33F0036C041ED8B0042A019C
:10670B000E066E02BE8EEF33F08CEF33F094EF3348
:10671B00F0016C021ED8B0022A010E061A000E08F8
:10672B006E000E076E03500410D8B49FEF33F0A128
:10673B00EF33F0C9EF33F0010E056EA9EF33F0D84C
:10674B009003360436052A04AEAEEF33F0B0EF33C8
:10675B00F0A5EF33F0D890073608360350015C04F0
:10676B00500258D8A0BCEF33F0BEEF33F0C3EF3379
:10677B00F00350015E0450025A0780D89004320394
:10678B0032052EB0EF33F00650D8B4CFEF33F0D143
:10679B00EF33F0D5EF33F0076C081ED8B0082A079B
:1067AB00C001F008C002F0120044044510D8A4E167
:1067BB00EF33F0E3EF33F00EEF34F0000E476E00E3
:1067CB000E466E4650060DF350280F096E010E8AC9
:1067DB00EC32F00C0E2A6E7F0E2B6ECFEC37F000E6
:1067EB000E0001E46F280EE36F000E9D6F010E9CEF
:1067FB006F464A472A47BE0CEF34F0475009E10475
:10680B000E465CD8A00CEF34F00EEF34F0E7EF330C
:10681B00F044504510D8A415EF34F017EF34F03E88
:10682B00EF34F0000E496E000E486E4850060DF323
:10683B0050280F096E010E8AEC32F00C0E2A6E7F77
:10684B000E2B6ECFEC37F0000E0001E46F280EE339
:10685B006F484A492A49BE3CEF34F0495009E104DC
:10686B000E485CD8A03CEF34F03EEF34F01BEF3415
:10687B00F01200096E000E086E5504D8A448EF34D0
:10688B00F04AEF34F05FEF34F05750056E066A05AF
:10689B000E0526000E062206BE5FEF34F0065007EB
:1068AB00E1800E055CD8B05DEF34F05FEF34F0683B
:1068BB00EF34F00A0E0918D8A466EF34F068EF3401
:1068CB00F06AEF34F091EC30F00A0E0918D8B4717D
:1068DB00EF34F073EF34F0B1EF34F00950E00F09FF
:1068EB006E5550D8A47CEF34F07EEF34F08AEF3441
:1068FB00F0800E5718D8A485EF34F087EF34F08A68
:10690B00EF34F0010E20EC31F00950050D070E05A8
:10691B006E790E066EF3500526F4500622085005CC
:10692B0026000E062205C0F6FF06C0F7FF0800F58D
:10693B00CF07F0075076EC30F0572A082A050E08DF
:10694B0018D8A4ABEF34F0ADEF34F076EF34F000A1
:10695B000E76EC30F0572A12001DEF35F020EE01C9
:10696B00F00150D9260250DA22350EDE18D8A4C118
:10697B00EF34F0C3EF34F03EEF35F0000E026E0152
:10698B000E016E3EEF35F020EE01F00150D92602DC
:10699B0050DA22430EDE18D8A4D6EF34F0D8EF34F9
:1069AB00F03EEF35F020EE02F00150D9260250DA1E
:1069BB0022310EDE18D8A4E5EF34F0E7EF34F03EC9
:1069CB00EF35F0000E026E040E016E3EEF35F02037
:1069DB00EE01F00150D9260250DA22370EDE18D81C
:1069EB00A4FAEF34F0FCEF34F03EEF35F0000E027A
:1069FB006E030E016E3EEF35F020EE01F00150D923
:106A0B00260250DA22390EDE18D8A40FEF35F0111A
:106A1B00EF35F03EEF35F0000E026E020E016E3ECA
:106A2B00EF35F0000E026E000E016E3EEF35F001F9
:106A3B00C0D9FF02C0DAFFDF50036E046A045000B6
:106A4B000AD8B42BEF35F017EF35F00350410AD8C5
:106A5B00B4B4EF34F0030AD8B4C9EF34F0010AD858
:106A6B00B4EDEF34F0070AD8B402EF35F017EF3579
:106A7B00F01200286E020E2818D8A447EF35F04903
:106A8B00EF35F088EF35F07EEF35F012C013F0FFE5
:106A9B000E1326010E146E156A166A176A132A5CFA
:106AAB00EF35F0D8901436153616361736132E5799
:106ABB00EF35F00E501414186E0F501514196E108C
:106ACB005016141A6E115017141B6E185019101AF9
:106ADB00101B10D8A474EF35F077EF35F0010E785A
:106AEB00EF35F0000E296E2950300F3FEC34F012C9
:106AFB00061250D8A484EF35F086EF35F04BEF3506
:106B0B00F06FEF36F00E500F1010101110D8A4913B
:106B1B00EF35F093EF35F0AEEF35F0000E296E9BAD
:106B2B00EF35F0300E3FEC34F0292A1250295CD8A7
:106B3B00B0A2EF35F0A4EF35F06FEF36F0090E2968
:106B4B0064AAEF35F0ACEF35F097EF35F06FEF3619
:106B5B00F0000E296E0BEF36F00E500F10101011C7
:106B6B0010D8B4BBEF35F0BDEF35F0F0EF35F01CBE
:106B7B000E2924D96EDA6A000EDA220EC001F00F4C
:106B8B00C002F010C003F011C004F02850056E06CF
:106B9B006A076A086ACEEC32F001502802F3500EF5
:106BAB005CDF6E0EC001F00FC002F010C003F011DD
:106BBB00C004F02850056E066A076A086ACEEC32EC
:106BCB00F001C00EF002C00FF003C010F004C011B2
:106BDB00F00AEF36F01228D8B4F6EF35F0F8EF35AF
:106BEB00F067EF36F00A0E1264FEEF35F000EF3669
:106BFB00F002EF36F067EF36F01C0E2924D96EDA6F
:106C0B006A000EDA22000EDF6E292A1250295CD898
:106C1B00A012EF36F014EF36F0B2EF35F067EF3627
:106C2B00F0FF0E136EFF0E146E2950156E166A13BD
:106C3B00501526145016221C0E1524D96E000E1654
:106C4B0020DA6E0A0EDF602DEF36F02FEF36F04AAA
:106C5B00EF36F0FF0E136EFF0E146E2950156E16E5
:106C6B006A13501526145016221C0E1524D96E00CB
:106C7B000E1620DA6EDF50176E300E1724266E2795
:106C8B006A000E272263EF36F0FF0E136EFF0E1411
:106C9B006E2950156E166A13501526145016221CA9
:106CAB000E1524D96E000E1620DA6EDF50176E37D4
:106CBB000E1724266E276A000E272226503FEC342F
:106CCB00F029062950D8A46DEF36F06FEF36F01689
:106CDB00EF36F0120020EE60F010EEA5F0130EDB95
:106CEB00CFE3FFE806FCE24AC009F048508AEC32D9
:106CFB00F0000E0001A6BFFF0E4D6E800A4C6E44D5
:106D0B0050A55D4550A65946504D584750800A4CEA
:106D1B0058D8B093EF36F095EF36F0C2EF36F0A7B8
:106D2B00C04CF0A8C04DF0000E4DBEFF0E4E6E4F86
:106D3B006E44504C5C45504D5846504E584F508009
:106D4B000A506E4750800A5058D8A0AFEF36F0B1BA
:106D5B00EF36F0C2EF36F0A60E2A6E7F0E2B6ECFFB
:106D6B00EC37F0000E5A6E010E596E640E0001D313
:106D7B0027000ED423CEEF37F0000EAABFFF0E4D27
:106D8B006E800A4C6E4450A95D4550AA5946504D31
:106D9B00584750800A4C58D8B0D6EF36F0D8EF365B
:106DAB00F005EF37F0ABC04CF0ACC04DF0000E4D22
:106DBB00BEFF0E4E6E4F6E44504C5C45504D5846C8
:106DCB00504E584F50800A506E4750800A5058D83A
:106DDB00A0F2EF36F0F4EF36F005EF37F0860E2A1F
:106DEB006E7F0E2B6ECFEC37F0000E5A6E020E59E3
:106DFB006E320E0001D327000ED423CEEF37F000F6
:106E0B000EAEBFFF0E4D6E800A4C6E4450AD5D450D
:106E1B0050AE5946504D584750800A4C58D8B0196F
:106E2B00EF37F01BEF37F048EF37F0AFC04CF0B057
:106E3B00C04DF0000E4DBEFF0E4E6E4F6E44504CCB
:106E4B005C45504D5846504E584F50800A506E4737
:106E5B0050800A5058D8A035EF37F037EF37F0484D
:106E6B00EF37F0730E2A6E7F0E2B6ECFEC37F000E0
:106E7B000E5A6E030E596E140E0001D327000ED45A
:106E8B0023CEEF37F0000EB2BFFF0E4D6E800A4CD3
:106E9B006E4450B15D4550B25946504D58475080E5
:106EAB000A4C58D8B05CEF37F05EEF37F08BEF370A
:106EBB00F0B3C04CF0B4C04DF0000E4DBEFF0E4E03
:106ECB006E4F6E44504C5C45504D5846504E584F8B
:106EDB0050800A506E4750800A5058D8A078EF3730
:106EEB00F07AEF37F08BEF37F0370E2A6E7F0E2BE1
:106EFB006ECFEC37F0000E5A6E040E596E0A0E0070
:106F0B0001D327000ED423CEEF37F0000EB6BFFF10
:106F1B000E4D6E800A4C6E4450B55D4550B65946C9
:106F2B00504D584750800A4C58D8B09FEF37F0A1BE
:106F3B00EF37F0CEEF37F0B7C04CF0B8C04DF000E4
:106F4B000E4DBEFF0E4E6E4F6E44504C5C45504D79
:106F5B005846504E584F50800A506E4750800A503A
:106F6B0058D8A0BBEF37F0BDEF37F0CEEF37F04C72
:106F7B000E2A6E7F0E2B6ECFEC37F0000E5A6E057D
:106F8B000E596E050E0001D327000ED423CEEF371A
:106F9B00F012002C0E426E000E436E2AC03EF02BF8
:106FAB00C03FF0B4EF39F03EC0F6FF3FC0F7FF082B
:106FBB0000F5CF40F0250E4018D8A4E7EF37F0E9E5
:106FCB00EF37F0AFEF39F03E4A3F2A3EC0F6FF3FB6
:106FDB00C0F7FF0800F5CF40F02F0E4064F8EF37F5
:106FEB00F0FAEF37F027EF38F03A0E406000EF3849
:106FFB00F002EF38F027EF38F0000E416E15EF3846
:10700B00F041500A0DF3504024D00F416E3E4A3FE1
:10701B002A3EC0F6FF3FC0F7FF0800F5CF40F02F28
:10702B000E40641BEF38F01DEF38F02AEF38F039C3
:10703B000E406423EF38F025EF38F006EF38F0649C
:10704B00EF39F0416864EF39F064EF39F042C0D9A1
:10705B00FF43C0DAFFDF50406E020E4226000E43A4
:10706B002240503FEC34F0B2EF39F042C0D9FF432D
:10707B00C0DAFFDECF34F0DDCF35F0020E42260052
:10708B000E432235BE4EEF38F04CEF38F055EF384B
:10709B00F0346C351ED8B0352A2D0E3FEC34F0345D
:1070AB00C00EF035C00FF0000E0FBEFF0E106E11AC
:1070BB006E41C012F00A0E3FEC35F0B2EF39F042E0
:1070CB00C0D9FF43C0DAFFDECF36F0DDCF37F00299
:1070DB000E4226000E432237BE78EF38F076EF389B
:1070EB00F07FEF38F0366C371ED8B0372A2D0E3FB5
:1070FB00EC34F036C00EF037C00FF0000E0FBEFFB1
:10710B000E106E116E41C012F00A0E3FEC35F0B24C
:10711B00EF39F042C0D9FF43C0DAFFDECF3CF0DDE0
:10712B00CF3DF0020E4226000E43223CC00EF03D36
:10713B00C00FF0106A116A41C012F00A0E3FEC3515
:10714B00F0B2EF39F042C0D9FF43C0DAFFDECF38DF
:10715B00F0DECF39F0DECF3AF0DECF3BF0040E425B
:10716B0026000E432238C00EF039C00FF03AC01083
:10717B00F03BC011F041C012F00A0E3FEC35F0B2FB
:10718B00EF39F042C0D9FF43C0DAFFDECF3CF0DD70
:10719B00CF3DF0020E4226000E43223CC00EF03DC6
:1071AB00C00FF0106A116A41C012F0100E3FEC359F
:1071BB00F0B2EF39F042C0D9FF43C0DAFFDECF386F
:1071CB00F0DECF39F0DECF3AF0DECF3BF0040E42EB
:1071DB0026000E432238C00EF039C00FF03AC01013
:1071EB00F03BC011F041C012F0100E3FEC35F0B285
:1071FB00EF39F042C0D9FF43C0DAFFDECF3CF0DD00
:10720B00CF3DF0020E4226000E43224128D8A41196
:10721B00EF39F013EF39F015EF39F0100E416E3CEA
:10722B00C00EF03DC00FF0106A116A41C012F0029F
:10723B000E3FEC35F0B2EF39F042C0D9FF43C0DA64
:10724B00FFDECF38F0DECF39F0DECF3AF0DECF3BCA
:10725B00F0040E4226000E43224128D8A438EF3901
:10726B00F03AEF39F03CEF39F0100E416E38C00EAA
:10727B00F039C00FF03AC010F03BC011F041C01212
:10728B00F0020E3FEC35F0B2EF39F042C0D9FF43BC
:10729B00C0DAFFDECF32F0DDCF33F0020E42260034
:1072AB000E432232C00AF033C00BF0E5EC30F0B2E3
:1072BB00EF39F0250E3FEC34F0B2EF39F04050309F
:1072CB006E316A3150000AD8B46EEF39F0B2EF3933
:1072DB00F03050250AD8B45FEF39F0670AD8B422E2
:1072EB00EF39F0010AD8B42CEF38F0070AD8B4659F
:1072FB00EF38F0020AD8B4ADEF39F0150AD8B44B19
:10730B00EF39F0060AD8B4A8EF38F00D0AD8B4E07C
:10731B00EF38F03A0AD8B4FFEF38F0010AD8B42CA2
:10732B00EF38F0070AD8B43BEF38F0020AD8B4B202
:10733B00EF39F0150AD8B44BEF39F0060AD8B48FF1
:10734B00EF38F00D0AD8B4C7EF38F0B2EF39F0B21E
:10735B00EF39F040503FEC34F03E4A3F2A3EC0F646
:10736B00FF3FC0F7FF0800F5500009D8A4C0EF3964
:10737B00F0C2EF39F0D9EF37F01200000E0001E444
:10738B006F280EE36F000EE26F010EE16F210E927C
:10739B006E070E966E9468948C949E0E0EC16E01C1
:1073AB000EC26EB10EC06E4AEC31F0C0EC30F08202
:1073BB009E82B0E3EF39F0E5EF39F0DBEF39F0E225
:1073CB000E046E7A0E056E4EEC32F0330E526EBB1F
:1073DB000E516EE00EE82EFED7512EFCD7522EFA30
:1073EB00D7A4EC31F0000E096E000E8AEC32F00ED1
:1073FB000E2A6E7F0E2B6ECFEC37F0480E526E06B8
:10740B000E516EA00EE82EFED7512EFCD7522EFA3F
:10741B00D7A4EC31F0828E0B0E526E260E516E5E9F
:10742B000EE82EFED7512EFCD7522EFAD7010EC2E4
:10743B006EB10EC06EC282C2A226EF3AF028EF3AAE
:10744B00F03CEF3AF0C450FF0DF3CF51F0F4CF52B4
:10745B00F0C3505126000E522251C0C9F052C0CA7F
:10746B00F00001000ECABFFF0ECB6FCC6F000E09F0
:10747B006E000E8AEC32F0E40E2A6E7F0E2B6EC974
:10748B00C02CF0CAC02DF0CBC02EF0CCC02FF0CF4B
:10749B00EC37F0C9C044F0CAC045F0CBC046F0CCC5
:1074AB00C047F0000E496E060E486E000E4B6E0084
:1074BB000E4A6E70EC36F0C290670E096E070E8A9C
:1074CB00EC32F0F30E2A6E7F0E2B6ECFEC37F00002
:1074DB0001A451FF0AE06FE0C080FFDCEC31F0014A
:1074EB00C0D7F002C0D8F0A4C001F0026A15EC328C
:1074FB00F001C0DBF002C0DCF0FF0E0001D725D994
:10750B006FFF0ED821DA6FD7C0D5F0D8C0D6F000F8
:10751B000E096E010E8AEC32F0EC0E2A6E7F0E2BEA
:10752B006ECFEC37F00001D8BFA4EF3AF0D851087A
:10753B00E1D705D8A0A4EF3AF0A6EF3AF0DFEF3B86
:10754B00F0E4BFB4EF3AF0E45107E1400EE35DD84D
:10755B00B0B2EF3AF0B4EF3AF003EF3BF0E3C0090F
:10756B00F0E1518AEC32F0DBC051F0DCC052F0D8C4
:10757B009051365236D89051365236840E536E0097
:10758B000E546E51505326525054220001D9515370
:10759B0024D96EDA515420DA6EDF50DF6FFC0E2ADD
:1075AB006E7F0E2B6EDFC02CF02D6ACFEC37F00008
:1075BB000E0001E26F010EE16F060EE327000EE4F1
:1075CB0023CC0E9C25D96E000E9D21DA6EDFC0DF19
:1075DB00FF9C4B9D2BDCEC31F001C0D7F002C0D8E7
:1075EB00F00001D751D51909E1D851D619D8B401FA
:1075FB00EF3BF003EF3BF0F0EF3AF09DBF0FEF3BAB
:10760B00F09D5109E1050E9C5DD8A00FEF3BF011E9
:10761B00EF3BF0DFEF3BF0000EC06F000EBF6F00D3
:10762B000EC86F000EC76FC8BF25EF3BF0C85109DE
:10763B00E1040EC75DD8A025EF3BF027EF3BF02907
:10764B00EF3BF087EF3BF0000EC66F000EC56FC629
:10765B00BF39EF3BF0C65109E1040EC55DD8A03927
:10766B00EF3BF03BEF3BF03DEF3BF083EF3BF0C7E5
:10767B00C051F0C8C052F0D89051365236D8905104
:10768B00365236740E536E000E546E5150532652B2
:10769B00505422C5515324D96EC6515420DA6EDF93
:1076AB0050C16FCD0EC725D96E000EC821DA6EDF23
:1076BB0050C26FC151C219D8A466EF3BF068EF3BC3
:1076CB00F07FEF3BF0B90EBF25D96E000EC021DA6B
:1076DB006EC2C0DFFF150E526E4B0E516EBE0EE822
:1076EB002EFED7512EFCD7522EFAD700D00001BF59
:1076FB004BC02BC54BC62B2DEF3BF0C74BC82B19E3
:10770B00EF3BF0B90E016E000E026EB2EC34F001DD
:10771B00C0BDF002C0BEF0D8900001BD35D96EBE21
:10772B0035DA6E920ED926000EDA22DECFC3F0DDEB
:10773B00CFC4F0000E456E000E446EDAEC33F00051
:10774B000E096E040E8AEC32F0B50E2A6E7F0E2BEC
:10775B006EC3C02CF0C4C02DF0CFEC37F0000E0080
:10776B00019D6F010E9C6FC351D35DC451D459D889
:10777B00A0C2EF3BF0C4EF3BF0DBEF3BF0050E524A
:10778B006E0F0E516EF10EE82EFED7512EFCD75216
:10779B002EFAD700F00001C351D35FC451D45B0064
:1077AB000ED26F010ED16FDFEF3BF0000ED26F00E8
:1077BB000ED16F000E096E030E8AEC32F00001D170
:1077CB0051D211D8B4ECEF3BF0EEEF3BF00FEF3CA6
:1077DB00F0D351D411D8B4F5EF3BF0F7EF3BF003F6
:1077EB00EF3CF0C20E2A6E7F0E2B6ED3C02CF0D462
:1077FB00C02DF0CFEC37F015EF3CF0CF0E2A6E7F9B
:10780B000E2B6ED3C02CF0D4C02DF0CFEC37F0156F
:10781B00EF3CF0600E2A6E7F0E2B6ECFEC37F00034
:10782B000E096E040E8AEC32F0DB0E2A6E7F0E2BE5
:10783B006ECFEC37F00001D351D411D8A428EF3C14
:10784B00F02AEF3CF037EF3CF0000E096E050E8A84
:10785B00EC32F0970E2A6E7F0E2B6ECFEC37F04288
:10786B00EF3CF0000E096E050E8AEC32F0E20E2AA8
:10787B006E7E0E2B6ECFEC37F082A047EF3CF049BB
:10788B00EF3CF058EF3CF0A4EC31F0000E096E0029
:10789B000E8AEC32F0F80E2A6E7F0E2B6ECFEC3781
:1078AB00F0DBEF39F082AC5DEF3CF05FEF3CF06565
:1078BB00EF3CF0000E456E010E446EDAEC33F00037
:1078CB0001A451A425A46FDD4BDE2BDEBF77EF3C6B
:1078DB00F0DE5109E1040EDD5DD8A077EF3CF079C5
:1078EB00EF3CF01CEF3AF0000EDE6F000EDD6F0286
:1078FB000EA46F1CEF3AF000EF00F0000000000048
:10790B000000002F00000007000700147F147F14F5
:10791B00242A7F2A12231308646236495522500009
:10792B0005030000001C2241000041221C0014082A
:10793B003E081408083E08080000A060000808086C
:10794B000808006060000020100804023E51494501
:10795B003E00427F400042615149462141454B3137
:10796B001814127F1027454545393C4A49493001C7
:10797B00710905033649494936064949291E00361E
:10798B00360000005636000008142241001414146F
:10799B0014140041221408020151090632495951AD
:1079AB003E7C1211127C7F494949363E41414122AE
:1079BB007F4141221C7F494949417F090909013E09
:1079CB004149497A7F0808087F00417F41002040E8
:1079DB00413F017F081422417F404040407F020C11
:1079EB00027F7F0408107F3E4141413E7F09090918
:1079FB00063E4151215E7F091929464649494931C5
:107A0B0001017F01013F4040403F1F2040201F3FAD
:107A1B004038403F6314081463070870080761512E
:107A2B00494543007F41410055AA55AA55004141A4
:107A3B007F000402010204808080808080000000AF
:107A4B000020545454787F484444383844444420EC
:107A5B00384444487F3854545418087E090102189E
:107A6B00A4A4A47C7F0804047800447D40004080DB
:107A7B00847D007F1028440000417F40007C041867
:107A8B0004787C080404783844444438FC242424C7
:107A9B001818242418FC7C08040408485454542057
:107AAB00043F4440203C4040207C1C2040201C3C98
:107ABB004030403C44281028441CA0A0A07C4464C7
:107ACB00544C4400107C82003F0000000000827C7C
:107ADB00100000060909060000000000000000006D
:107AEB00000000000000000000000000000000008B
:107AFB00000000000000000000000000000000007B
:107B0B00000000000000000000000000000000006A
:107B1B00000000000000000000000000000000005A
:107B2B00000000000000000000000000000000004A
:107B3B00000000000000000000000000000000003A
:107B4B00000000000000000000000000000000002A
:107B5B00000000000000000000000000000000001A
:107B6B00000000000000000000000000000000000A
:107B7B0000000000000000000000000000000000FA
:107B8B0000000000000000000000000000000000EA
:107B9B0000000000000000000000000000000000DA
:107BAB0000000000000000000000000000000000CA
:107BBB0000000000000000000000000000000000BA
:107BCB0000000000000000000000000000000000AA
:107BDB00000000000000000000000000000000009A
:107BEB00000000000000000000000000000000008A
:107BFB00000000000000000000000000000000007A
:107C0B0000000020E0E000000F0F0F0F0F0F0F0020
:107C1B0000E060E0000000000000E0E0E0000C0F7E
:107C2B000F0F0F0F0F0F00C0E0E0A00000000000CF
:107C3B000000000000000000000000000000000039
:107C4B000000000000000000000000000000000029
:107C5B000000000000000000000000000000000019
:107C6B000000000000000000000000000000000009
:107C7B000000000000000000000000000000FCFC01
:107C8B00FCFC0000010100000000000000000000EF
:107C9B0000010101001C1C1C1C0001010100000063
:107CAB000000000000000001010101009CFCFC0031
:107CBB0000000000000000000000000000000000B9
:107CCB0000000000000000000000000000000000A9
:107CDB000000000000000000000000000000000099
:107CEB000000000000000000000000000000000089
:107CFB000000000000000000000000000000030373
:107D0B0003030018101000008080800000000000AA
:107D1B000000000000000000000000000000000058
:107D2B000000008080800018281800000303030067
:107D3B000000000000000000000000000000000038
:107D4B000000000000000000000000000000000028
:107D5B000000000000000000000000000000000018
:107D6B000000000000000000000000000000000008
:107D7B0000000000000000000000000000000000F8
:107D8B000000000000000000060707003030303014
:107D9B0000000000000000000000000000007070F8
:107DAB0070600007070700000000000000000000E3
:107DBB0000000000000000000000000000000000B8
:107DCB0000000000000000000000000000000000A8
:107DDB000000000000000000000000000000000098
:107DEB000000000000000000000000000000000088
:107DFB000000000000000000000000000000000078
:107E0B000000000000000000000000000000000067
:107E1B00000F0F0F002020E0E0000D0F0F000000FF
:107E2B000000000000000000000000000000000047
:107E3B000000000000000000000000000000000037
:107E4B000000000000000000000000000000000027
:107E5B000000000000000000000000000000000017
:107E6B000000000000000000000000000000000007
:107E7B0000000000000000000000000000000000F7
:107E8B0000000000000000000000000000000000E7
:107E9B0000000000000000000000000000000000D7
:107EAB0000000000000000000000000000000000C7
:107EBB0000000000000000000000000000000000B7
:107ECB0000000000000000000000000000000000A7
:107EDB000000000000000020202020202020202077
:107EEB002020202020202020202020202020202087
:107EFB002020202020202020202020202020202077
:107F0B0020200020202020204269656E76656E6956
:107F1B00646F20616C200A2064697370656E7361F5
:107F2B00646F72204D4C5033303030000A436F6C0D
:107F3B006F723A205665726465204F736375726F6A
:107F4B00000A436F6C6F723A20417A756C204F7345
:107F5B006375726F0053616C646F20496E73756645
:107F6B00696369656E7465000A436F6C6F723A20C2
:107F7B00417A756C20436C61726F000A436F6C6FB2
:107F8B00723A20416D6172696C6C6F00496E677259
:107F9B006573652073616C646F2E000A436F6C6FA1
:107FAB00723A20426C616E636F0050726563696F49
:107FBB003A20256430300053616C646F3A202425DD
:107FCB006430300053616C646F3A202425316400B7
:107FDB0050726563696F3A20004C44523A20256415
:107FEB0000436F64653A200031387E43004F4646AC
:057FFB000025630000F9
:020000040020DA
:08000000FFFFFFFFFFFFFFFF00
:020000040030CA
:0E000000000C011EFF8180FF0FC00FE00F40BB
:00000001FF
