:020000040000FA
:040000004FEF34F09A
:1066710001000283828390120083808392120000C2
:106681000E026E0A0E016E5EEC33F01200313233EF
:106691004134353642373839432A30234404000126
:1066A100002800036E40EC33F056500318816E83CE
:1066B100868394838800D08398120063EF33F001BE
:1066C10006D8A0020601500210D8A46AEF33F06C7C
:1066D100EF33F060EF33F01200542ABF0E546474AC
:1066E100EF33F076EF33F078EF33F0B80E546E00FD
:1066F1000EC9EC33F01200036E40EC33F003C0819D
:10670100FF839683948388000E026E010E016E5EF4
:10671100EC33F083981200056E080E056093EF3399
:10672100F095EF33F09BEF33F00550B80F546E0046
:106731000EC9EC33F01200A7EF33F0010E026E2CFC
:106741000E016E5EEC33F00306D8A004060350047C
:1067510010D8A4AEEF33F0B0EF33F09EEF33F01268
:1067610000BCEF33F00AC0D9FF0BC0DAFFDF50796C
:10677100EC36F00A4A0B2A0AC0D9FF0BC0DAFFDF58
:1067810050D8A4C6EF33F0C8EF33F0B3EF33F012B3
:1067910000046E0450D8B4D0EF33F0D2EF33F0DA06
:1067A100EF33F00404D8A4D8EF33F0DAEF33F0F28A
:1067B100EF33F00450D8A4E0EF33F0E2EF33F0E62A
:1067C100EF33F03AEC33F0E8EF33F03DEC33F00423
:1067D100C053F0400E556E54507CEC33F055507C54
:1067E100EC33F01200000E936EE00E95163AEC3386
:1067F100F03F0E7CEC33F03DEC33F03F0E7CEC339C
:10680100F0000E046E0A0E036E9CEC33F03AEC338A
:10681100F0C00E7CEC33F03DEC33F0C00E7CEC3379
:10682100F0000EC9EC33F07FEC34F0000E536EB87B
:106831000E546E400E556E000EC9EC33F01200007E
:106841000E476E280E466E35EF34F046C009F00152
:106851000E29EC35F0F50E2A6E7F0E2B6ECFEC3A39
:10686100F0180E4626000E472247BE41EF34F0478E
:106871005009E1400E465CD8A041EF34F043EF34BB
:10688100F026EF34F00B0E456E260E446E5E0EE8D8
:106891002EFED7442EFCD7452EFAD712008E0EF6C7
:1068A1006E660EF76E000EF86E00EE60F010EE16DA
:1068B100F00900F5CFEEFFE550E150FAE1710EF677
:1068C1006E660EF76E000EF86E0900F5CF5CF009EA
:1068D10000F5CF5DF00900F5CF5EF000EE76F01423
:1068E1000EEE6AE806FDE100EE53F0090EEE6AE8ED
:1068F10006FDE1000EF86E000146EF39F0000E07CB
:106901006E3AEC33F0400E7CEC33F00750B80F7C5C
:10691100EC33F0000E066E400E0618D8A493EF3447
:10692100F095EF34F09EEF34F03DEC33F0400E7C07
:10693100EC33F00750B80F7CEC33F0000E52EC331F
:10694100F0062A7F0E0664A8EF34F0AAEF34F08C2B
:10695100EF34F0072A070E0764B1EF34F0B3EF34D8
:10696100F081EF34F0000E8CEC33F0120080BABCF1
:10697100EF34F0BEEF34F0C4EF34F0000E026E01DC
:106981000E016EEFEF34F084B0C9EF34F0CBEF3489
:10699100F0D1EF34F0000E026E020E016EEFEF3413
:1069A100F084B2D6EF34F0D8EF34F0DEEF34F000FB
:1069B1000E026E030E016EEFEF34F084B4E3EF3498
:1069C100F0E5EF34F0EBEF34F0000E026E040E014F
:1069D1006EEFEF34F0000E026E000E016E12000A2F
:1069E100EF35F0000E026E000E016E28EF35F0005B
:1069F1000E026E010E016E28EF35F0000E026E02DE
:106A01000E016E28EF35F0000E026E030E016E28A6
:106A1100EF35F001C003F002C004F00450000AD8C1
:106A2100B415EF35F028EF35F00350020AD8B4F26F
:106A3100EF34F0060AD8B4F8EF34F00C0AD8B4FEFB
:106A4100EF34F0180AD8B404EF35F028EF35F0121E
:106A5100000A6E080E0A6030EF35F032EF35F06C47
:106A6100EF35F0810E096038EF35F03AEF35F06C13
:106A7100EF35F009C001F0026A000E046E400E030A
:106A81006E17EC36F001500B6E09C001F0026A007E
:106A91000E046E3F0E036EBFEC35F00150096E0B14
:106AA10050D8A456EF35F058EF35F05CEF35F03A99
:106AB100EC33F05EEF35F03DEC33F00BC053F00AF0
:106AC10050B809546E09504009556E55507CEC334D
:106AD100F054507CEC33F01200000E096E000E0AE7
:106AE1006E000E0B6E000E0C6E055006100710089E
:106AF10010D8B47EEF35F080EF35F0B6EF35F00108
:106B01000E0D6E8AEF35F0D8900536063607360839
:106B1100360D2A08AE8FEF35F091EF35F084EF3561
:106B2100F0D89009360A360B360C360550015C0652
:106B31005002580750035808500458D8A0A3EF3505
:106B4100F0A5EF35F0AEEF35F00550015E065002CD
:106B51005A0750035A0850045A0980D8900832073E
:106B610032063205320D2E91EF35F009C001F00ADF
:106B7100C002F00BC003F00CC004F01200000E06BE
:106B81006E02BEC8EF35F0C6EF35F0CEEF35F0013D
:106B91006C021ED8B0022A010E066E04BED5EF3576
:106BA100F0D3EF35F0D9EF35F0036C041ED8B00403
:106BB1002A03500410D8B4E0EF35F0E2EF35F006C7
:106BC100EF36F0010E056EEAEF35F0D8900336048A
:106BD10036052A04AEEFEF35F0F1EF35F0E6EF358B
:106BE100F00350015C04500258D8A0FAEF35F0FCD4
:106BF100EF35F000EF36F00350015E0450025AD831
:106C01009004320332052EF1EF35F00650D8B40C62
:106C1100EF36F00EEF36F012EF36F0016C021ED8AF
:106C2100B0022A01C001F002C002F01200000E06FB
:106C31006E04BE20EF36F01EEF36F026EF36F0037D
:106C41006C041ED8B0042A010E066E02BE2DEF366A
:106C5100F02BEF36F033EF36F0016C021ED8B002A4
:106C61002A010E061A000E086E000E076E0350046C
:106C710010D8B43EEF36F040EF36F068EF36F00151
:106C81000E056E48EF36F0D89003360436052A0417
:106C9100AE4DEF36F04FEF36F044EF36F0D89007B7
:106CA1003608360350015C04500258D8A05BEF3619
:106CB100F05DEF36F062EF36F00350015E045002F2
:106CC1005A0780D89004320332052E4FEF36F00672
:106CD10050D8B46EEF36F070EF36F074EF36F0073F
:106CE1006C081ED8B0082A07C001F008C002F012D3
:106CF10000096E000E086E5304D8A482EF36F084AA
:106D0100EF36F099EF36F05550056E066A050E051F
:106D110026000E062206BE99EF36F0065007E180E6
:106D21000E055CD8B097EF36F099EF36F0A2EF364A
:106D3100F00A0E0918D8A4A0EF36F0A2EF36F0A49D
:106D4100EF36F06DEC33F00A0E0918D8B4ABEF361C
:106D5100F0ADEF36F0EBEF36F00950E00F096E536E
:106D610050D8A4B6EF36F0B8EF36F0C4EF36F08065
:106D71000E5518D8A4BFEF36F0C1EF36F0C4EF3688
:106D8100F0010EC9EC33F00950050D870E056E7D3B
:106D91000E066EF3500526F4500622085005260013
:106DA1000E062205C0F6FF06C0F7FF0800F5CF0763
:106DB100F0075052EC33F0552A082A050E0818D86E
:106DC100A4E5EF36F0E7EF36F0B0EF36F0000E5203
:106DD100EC33F0552A12004AC009F0485029EC352D
:106DE100F047BE00EF37F0475046100BE1ED0E447F
:106DF1005C020E4558D8A000EF37F002EF37F00FD4
:106E0100EF37F09E0E2A6E7F0E2B6ECFEC3AF0001C
:106E11000E0001816F000E806F14EF38F047BE1E27
:106E2100EF37F0475046100BE1CC0E445C020E45A3
:106E310058D8A01EEF37F020EF37F042EF37F04778
:106E4100BE31EF37F04750461009E1DB0E445C02DA
:106E51000E4558D8B02FEF37F031EF37F042EF370A
:106E6100F0C00E2A6E7F0E2B6ECFEC3AF0000E00B2
:106E710001816F010E806F100E7E27270E7F231474
:106E8100EF38F047BE51EF37F0475046100BE1A9FC
:106E91000E445C020E4558D8A051EF37F053EF373E
:106EA100F075EF37F047BE64EF37F04750461009F1
:106EB100E1C70E445C020E4558D8B062EF37F0646A
:106EC100EF37F075EF37F0AF0E2A6E7F0E2B6ECFD6
:106ED100EC3AF0000E0001816F020E806F880E7E89
:106EE10027130E7F2314EF38F047BE84EF37F047A6
:106EF1005046100BE18B0E445C020E4558D8A0841D
:106F0100EF37F086EF37F0A8EF37F047BE97EF374E
:106F1100F04750461009E1A90E445C020E4558D8CD
:106F2100B095EF37F097EF37F0A8EF37F08B0E2AD7
:106F31006E7F0E2B6ECFEC3AF0000E0001816F03D5
:106F41000E806FD00E7E27070E7F2314EF38F04797
:106F5100BEB7EF37F0475046100BE14B0E445C01D2
:106F61000E4558D8A0B7EF37F0B9EF37F0DBEF3760
:106F7100F047BECAEF37F04750461009E1730E449F
:106F81005C010E4558D8B0C8EF37F0CAEF37F0DBD7
:106F9100EF37F0620E2A6E7F0E2B6ECFEC3AF000C7
:106FA1000E0001816F040E806FE80E7E27030E7FB5
:106FB1002314EF38F047BEE9EF37F047504610454C
:106FC1001009E1650E445CD8A0E9EF37F0EBEF372B
:106FD100F00CEF38F047BEFBEF37F0475046104555
:106FE1001007E1A60E445CD8B0F9EF37F0FBEF379C
:106FF100F00CEF38F0770E2A6E7F0E2B6ECFEC3A45
:10700100F0000E0001816F050E806FF40E7E2701E6
:107011000E7F2314EF38F0CF0E2A6E7F0E2B6ECF2A
:10702100EC3AF008EF37F01200286E020E2818D85B
:10703100A41DEF38F01FEF38F05EEF38F054EF3851
:10704100F012C013F0FF0E1326010E146E156A160E
:107051006A176A132A32EF38F0D8901436153616AB
:10706100361736132E2DEF38F00E501414186E0FFC
:10707100501514196E105016141A6E115017141B56
:107081006E185019101A101B10D8A44AEF38F04D81
:10709100EF38F0010E4EEF38F0000E296E29503016
:1070A1000F79EC36F012061250D8A45AEF38F05C82
:1070B100EF38F021EF38F045EF39F00E500F101096
:1070C100101110D8A467EF38F069EF38F084EF3869
:1070D100F0000E296E71EF38F0300E79EC36F029A0
:1070E1002A1250295CD8B078EF38F07AEF38F045A1
:1070F100EF39F0090E296480EF38F082EF38F06D36
:10710100EF38F045EF39F0000E296EE1EF38F00E5F
:10711100500F1010101110D8B491EF38F093EF38D0
:10712100F0C6EF38F01C0E2924D96EDA6A000EDAA7
:10713100220EC001F00FC002F010C003F011C00414
:10714100F02850056E066A076A086A6DEC35F00191
:10715100502802F3500E5CDF6E0EC001F00FC0022A
:10716100F010C003F011C004F02850056E066A0744
:107171006A086A6DEC35F001C00EF002C00FF00331
:10718100C010F004C011F0E0EF38F01228D8B4CCF0
:10719100EF38F0CEEF38F03DEF39F00A0E1264D43B
:1071A100EF38F0D6EF38F0D8EF38F03DEF39F01C7A
:1071B1000E2924D96EDA6A000EDA22000EDF6E295A
:1071C1002A1250295CD8A0E8EF38F0EAEF38F088AD
:1071D100EF38F03DEF39F0FF0E136EFF0E146E29FC
:1071E10050156E166A13501526145016221C0E15D2
:1071F10024D96E000E1620DA6E0A0EDF6003EF3915
:10720100F005EF39F020EF39F0FF0E136EFF0E1489
:107211006E2950156E166A13501526145016221C2D
:107221000E1524D96E000E1620DA6EDF50176E305F
:107231000E1724266E276A000E272239EF39F0FF38
:107241000E136EFF0E146E2950156E166A1350152B
:1072510026145016221C0E1524D96E000E1620DAA3
:107261006EDF50176E370E1724266E276A000E2721
:1072710022265079EC36F029062950D8A443EF395B
:10728100F045EF39F0ECEF38F01200000E00018DFF
:107291006F280E8C6F000E8B6F010E8A6F210E927C
:1072A1006E070E966E94680E0EC16E010EC26EB11F
:1072B1000EC06EF3EC33F082B061EF39F063EF3959
:1072C100F05CEF39F0010EC26EB10EC06EC282C227
:1072D100A26DEF39F06FEF39F083EF39F0C450FF51
:1072E1000DF3CF4CF0F4CF4DF0C3504C26000E4DB2
:1072F100224CC076F04DC077F00001000E77BFFF41
:107301000E786F796F000E096E000E29EC35F0E8EA
:107311000E2A6E7F0E2B6E76C02CF077C02DF07882
:10732100C02EF079C02FF0CFEC3AF076C044F07760
:10733100C045F078C046F079C047F0000E496E05AF
:107341000E486E000E4B6E000E4A6EECEC36F0C22B
:10735100905E50FF0A5B6E5BC080FFB7EC34F001BA
:10736100C057F002C058F05EC001F0026AF0EC3480
:10737100F001C086F002C087F0FF0E57240001849F
:107381006FFF0E5820856F57C082F058C083F00000
:107391000E096E010E29EC35F0F00E2A6E7F0E2BD0
:1073A1006ECFEC3AF058BEDEEF39F0585008E15795
:1073B10004D8A0DEEF39F0E0EF39F03EEF3AF0000B
:1073C100018DBFEFEF39F08D5107E1400E8C5DD893
:1073D100B0EDEF39F0EFEF39F03EEF3AF08CC00944
:1073E100F08A5129EC35F086C04CF087C04DF0D8B9
:1073F100904C364D36D8904C364D36600E4E6E0060
:107401000E4F6E4C504E264D504F22000184514E6E
:1074110024D96E85514F20DA6EDF50596EFB0E2A4A
:107421006E7F0E2B6E59C02CF02D6ACFEC3AF00016
:107431000E00018B6F010E8A6F060E8C27000E8DD8
:1074410023790E5C24D96E000E5D20DA6E59C0DFFF
:10745100FF5C4A5D2AB7EC34F001C057F002C05816
:10746100F057500001821909E158508319D8B43CF2
:10747100EF3AF03EEF3AF02BEF3AF0000E096E02D0
:107481000E29EC35F0DE0E2A6E7F0E2B6E5CC02CC1
:10749100F05DC02DF0CFEC3AF05DBE59EF3AF05DF2
:1074A1005009E1050E5C5CD8A059EF3AF05BEF3A68
:1074B100F092EF3AF07A0E5124D96E000E5220DA92
:1074C1006EDF50506E000E096E030E29EC35F0FB95
:1074D1000E2A6E7F0E2B6E50C02CF02D6ACFEC3A27
:1074E100F0514A522A52BE7FEF3AF0525009E1045C
:1074F1000E515CD8A07FEF3AF081EF3AF085EF3A78
:10750100F0000E526E000E516E0B0E4D6E260E4C9B
:107511006E5E0EE82EFED74C2EFCD74D2EFAD75BB1
:10752100EF3AF082A097EF3AF099EF3AF0A8EF3AEC
:10753100F07FEC34F0000E096E000E29EC35F0F707
:107541000E2A6E7F0E2B6ECFEC3AF05CEF39F08293
:10755100A2ADEF3AF0AFEF3AF0B1EF3AF020EC34F0
:10756100F05E505E245E6E0001884B892B89BFC39B
:10757100EF3AF0895109E1040E885DD8A0C3EF3AD2
:10758100F0C5EF3AF063EF39F0000E896F000E8815
:107591006F020E5E6E63EF39F000EF00F02C0E42C9
:1075A1006E000E436E2AC03EF02BC03FF0B4EF3C9C
:1075B100F03EC0F6FF3FC0F7FF0800F5CF40F025D1
:1075C1000E4018D8A4E7EF3AF0E9EF3AF0AFEF3CFC
:1075D100F03E4A3F2A3EC0F6FF3FC0F7FF0800F5E4
:1075E100CF40F02F0E4064F8EF3AF0FAEF3AF0276F
:1075F100EF3BF03A0E406000EF3BF002EF3BF0272B
:10760100EF3BF0000E416E15EF3BF041500A0DF3D8
:10761100504024D00F416E3E4A3F2A3EC0F6FF3F04
:10762100C0F7FF0800F5CF40F02F0E40641BEF3B81
:10763100F01DEF3BF02AEF3BF0390E406423EF3BA6
:10764100F025EF3BF006EF3BF064EF3CF04168645E
:10765100EF3CF064EF3CF042C0D9FF43C0DAFFDFFA
:1076610050406E020E4226000E4322405079EC3605
:10767100F0B2EF3CF042C0D9FF43C0DAFFDECF34B5
:10768100F0DDCF35F0020E4226000E432235BE4E0C
:10769100EF3BF04CEF3BF055EF3BF0346C351ED82F
:1076A100B0352A2D0E79EC36F034C00EF035C00F0E
:1076B100F0000E0FBEFF0E106E116E41C012F00AE7
:1076C1000E15EC38F0B2EF3CF042C0D9FF43C0DAFE
:1076D100FFDECF36F0DDCF37F0020E4226000E433B
:1076E1002237BE78EF3BF076EF3BF07FEF3BF03691
:1076F1006C371ED8B0372A2D0E79EC36F036C00E15
:10770100F037C00FF0000E0FBEFF0E106E116E416C
:10771100C012F00A0E15EC38F0B2EF3CF042C0D9BD
:10772100FF43C0DAFFDECF3CF0DDCF3DF0020E4279
:1077310026000E43223CC00EF03DC00FF0106A112E
:107741006A41C012F00A0E15EC38F0B2EF3CF0427B
:10775100C0D9FF43C0DAFFDECF38F0DECF39F0DE2B
:10776100CF3AF0DECF3BF0040E4226000E43223822
:10777100C00EF039C00FF03AC010F03BC011F0411B
:10778100C012F00A0E15EC38F0B2EF3CF042C0D94D
:10779100FF43C0DAFFDECF3CF0DDCF3DF0020E4209
:1077A10026000E43223CC00EF03DC00FF0106A11BE
:1077B1006A41C012F0100E15EC38F0B2EF3CF04205
:1077C100C0D9FF43C0DAFFDECF38F0DECF39F0DEBB
:1077D100CF3AF0DECF3BF0040E4226000E432238B2
:1077E100C00EF039C00FF03AC010F03BC011F041AB
:1077F100C012F0100E15EC38F0B2EF3CF042C0D9D7
:10780100FF43C0DAFFDECF3CF0DDCF3DF0020E4298
:1078110026000E43224128D8A411EF3CF013EF3C7F
:10782100F015EF3CF0100E416E3CC00EF03DC00F64
:10783100F0106A116A41C012F0020E15EC38F0B274
:10784100EF3CF042C0D9FF43C0DAFFDECF38F0DEB3
:10785100CF39F0DECF3AF0DECF3BF0040E42260006
:107861000E43224128D8A438EF3CF03AEF3CF03CDB
:10787100EF3CF0100E416E38C00EF039C00FF03AF7
:10788100C010F03BC011F041C012F0020E15EC38EF
:10789100F0B2EF3CF042C0D9FF43C0DAFFDECF3295
:1078A100F0DDCF33F0020E4226000E432232C00A31
:1078B100F033C00BF0B1EC33F0B2EF3CF0250E79B0
:1078C100EC36F0B2EF3CF04050306E316A3150008E
:1078D1000AD8B46EEF3CF0B2EF3CF03050250AD834
:1078E100B45FEF3CF0670AD8B422EF3CF0010AD84C
:1078F100B42CEF3BF0070AD8B465EF3BF0020AD88D
:10790100B4ADEF3CF0150AD8B44BEF3CF0060AD801
:10791100B4A8EF3BF00D0AD8B4E0EF3BF03A0AD837
:10792100B4FFEF3BF0010AD8B42CEF3BF0070AD8C3
:10793100B43BEF3BF0020AD8B4B2EF3CF0150AD8E1
:10794100B44BEF3CF0060AD8B48FEF3BF00D0AD8E8
:10795100B4C7EF3BF0B2EF3CF0B2EF3CF0405079EE
:10796100EC36F03E4A3F2A3EC0F6FF3FC0F7FF0823
:1079710000F5500009D8A4C0EF3CF0C2EF3CF0D9AB
:10798100EF3AF012000000000000000000000000CB
:107991000000000000000000000000000080C0E0C6
:1079A100E0F0F0F0F8F8FCFCFCFCFEFEFEFEFEFE52
:1079B100FEFEFEFE7E7E7E7CFCFCFCF8F8F0F0F024
:1079C100E0C0C080000080C0E0E0F0F0F8F8FCFC0E
:1079D100FCFCFEFEFEFEFEFEFEFEFEFEFEFEFEFECA
:1079E100FEFEFCFCFCF8F8F8F0F0E0E0C0800000DE
:1079F1000000000000000000000000000000000086
:107A01000000000000000000000000000000000075
:107A1100000000000000C0E0F0F8FEFFFFFFFFFFE4
:107A2100FFFFFFFFFFFFFFFF3F1F0F070381C1E0C4
:107A3100E0F0F0F0F8F8F8F0F0F0F0E0E1C18307E1
:107A4100070F3F7FFFFFFFFFFFFFFFFFFFFFFF016B
:107A510001010181FFFF0101010183FFFF0101011B
:107A61000183FFFF01010101FFFFFFFFFFFFFFFE98
:107A7100FCF8F0E0800000000000000000000000C1
:107A810000000000000000000000000000000000F5
:107A9100000000E0FCFFFFFFFFFFFFFFFFFFFFFF14
:107AA100FFFFFFFFFFFF8700000000FCFFFFFFFF5C
:107AB100FFFFFFFFFFFFFFFFFFFFFFFFFFFFFFFED6
:107AC1003800000003FFFF71717171717171FFF96D
:107AD100F9F9FFFFFFFFFFFFFFFFFFFFFFFFFFFFC1
:107AE100FFFFFFFFFFFFFFFFFF7171717171717187
:107AF100FFFFFFFFFFFFF8C00000000000000000D3
:107B01000000000000000000000000000000000074
:107B110000007CFFFFFFFFFFFFFFFFFFFFFFFFFFF5
:107B2100FFFFFFFFFFFFFFFC7060000003070F0F67
:107B31001F1F3F3F3F3F3F3F3F3F1F1F0F07038136
:107B4100C0E0F0FCFFFFFF1C181818181818FFFF01
:107B5100FFFFFFFFFFFFFFFFFFFFFFFFFFFFFFFF34
:107B6100FFFFFFFFFFFFFFFFFF1818181818181875
:107B7100FFFFFFFFFFFFFFFF00000000000000000C
:107B810000000000000000000000000000000000F4
:107B91000000000F7FFFFFFFFFFFFFFFFFFFFFFF61
:107BA1007F3F1F0F070381C0E0F0F8FCFEFFFEFEE0
:107BB100FEFCFCFCFCFCFCFCFCFCFEFEFEFFFFFFF3
:107BC100FFFFFFFFFFFFFF86868686868686FFFF13
:107BD100FFFFFFFFFFFFFFFFFFFFFFFFFFFFFFFFB4
:107BE100FFFFFFFFFFFFFFFFFF86868686868686F3
:107BF100FFFFFFFFFF7F1F030000000000000000E8
:107C01000000000000000000000000000000000073
:107C1100000000000001030F1F3F7FEFC78381C0F9
:107C2100E0F0F8FCFEFFFFFFFFFFFFFFFFFFFFFF9C
:107C3100FFFFFFFFFFFFFFFFFFFFFFFFFFFFFFFF53
:107C4100FFFFFFFFFFFFFFFFFFFFFFFFFFFFFFC082
:107C5100C0C0C0C0FFFFC0C0C0C0C0FFFFC0C0C027
:107C6100C0C0FFFFC0C0C0C0FFFFFFFFFFFFFF7F1D
:107C71003F1F0F0301000000000000000000000092
:107C810000000000000000000000000000000000F3
:107C910000808080800000000000000001010307D7
:107CA100070F0F9F1F3F3F3F7F7F7F7F7F7F7F7F3B
:107CB1007F7F7F7F7FFFFFFFBF3F3F3F1F1F0F0F73
:107CC10007070381010001010307070F0F1F1F1F92
:107CD1003F3FBF3F7F7F7F7FFF7F7F7F7F7F7F7FB3
:107CE1003F3F3F3F9F1F1F0F0F0707030101000089
:107CF1000000000000000000000000000000000083
:107D01000000000000000000000000000000000072
:107D1100007F444444004266181C664000FE424213
:107D21007E00007F003C42423C00007E0202003C9B
:107D31004A4A6E00007F44444400007E02027C02F5
:107D4100027C007F42427E00003C4A4A6E00003CB9
:107D510042427F00003C42427F00003C4A4A6E00A2
:107D6100003C42427F00004000003C42424224006D
:107D71003C42423C00007E02027C02027C00000088
:107D8100000000000000000000000000002F0000C3
:107D91000007000700147F147F14242A7F2A12236E
:107DA1001308646236495522500005030000001C87
:107DB1002241000041221C0014083E081408083E1C
:107DC10008080000A06000080808080800606000BA
:107DD1000020100804023E5149453E00427F400008
:107DE10042615149462141454B311814127F1027F8
:107DF100454545393C4A4949300171090503364930
:107E0100494936064949291E0036360000005636D2
:107E11000000081422410014141414140041221407
:107E2100080201510906324959513E7C1211127C56
:107E31007F494949363E414141227F4141221C7FD0
:107E4100494949417F090909013E4149497A7F0868
:107E510008087F00417F41002040413F017F081415
:107E610022417F404040407F020C027F7F04081086
:107E71007F3E4141413E7F090909063E4151215E54
:107E81007F09192946464949493101017F01013FCD
:107E91004040403F1F2040201F3F4038403F631477
:107EA10008146307087008076151494543007F4181
:107EB100410055AA55AA550041417F000402010223
:107EC1000480808080808000000000205454547819
:107ED1007F484444383844444420384444487F3837
:107EE10054545418087E09010218A4A4A47C7F08E4
:107EF10004047800447D40004080847D007F102888
:107F0100440000417F40007C041804787C0804048C
:107F1100783844444438FC2424241818242418FCB8
:107F21007C080404084854545420043F4440203C35
:107F31004040207C1C2040201C3C4030403C4428D8
:107F41001028441CA0A0A07C4464544C4400107C24
:107F510082003F0000000000827C10000006090939
:107F6100060A436F6C6F723A205665726465204F42
:107F7100736375726F000A436F6C6F723A20417AB6
:107F8100756C204F736375726F000A436F6C6F726B
:107F91003A20417A756C20436C61726F000A2D3E64
:107FA100204E6F20486179205461706121000A439D
:107FB1006F6C6F723A20416D6172696C6C6F000A6F
:107FC100436F6C6F723A20426C616E636F000A53AB
:107FD100696E2050726F746563746F7200436F6EC7
:107FE100743A20253164004C44523A202564004300
:0E7FF1006F64653A20004F464600256300008D
:020000040020DA
:08000000FFFFFFFFFFFFFFFF00
:020000040030CA
:0E000000000C011EFF8180FF0FC00FE00F40BB
:00000001FF
