:020000040000FA
:04000000CCEF0DF044
:1018EC00838283901200838083921200040008008C
:1018FC00FF03000E026E0A0E016E9BEC0CF0120040
:10190C003132334134353642373839432A30234467
:10191C00036E7FEC0CF00001E7510318816E838697
:10192C008394838800D083981200A0EF0CF00106FA
:10193C00D8A0020601500210D8A4A7EF0CF0A9EF12
:10194C000CF09DEF0CF01200036E7FEC0CF003C05A
:10195C0081FF839683948388000E026E010E016EC4
:10196C009BEC0CF0839812000001E52BBF0EE56593
:10197C00C2EF0CF0C4EF0CF0C6EF0CF0B80EE56F34
:10198C00000E72EC0DF01200056E080E0560D1EF22
:10199C000CF0D3EF0CF0DAEF0CF00550B80F00019F
:1019AC00E56F000E72EC0DF01200FF0E056EFF0ECF
:1019BC00066EFF0E076E7F0E086E05C001F006C0A6
:1019CC0002F007C003F008C004F01200F7EF0CF0AF
:1019DC00010E026E2C0E016E9BEC0CF00306D8A0CF
:1019EC00040603500410D8A4FEEF0CF000EF0DF029
:1019FC00EEEF0CF012000CEF0DF00AC0D9FF0BC08B
:101A0C00DAFFDF50F8EC0FF00A4A0B2A0AC0D9FFB4
:101A1C000BC0DAFFDF50D8A416EF0DF018EF0DF065
:101A2C0003EF0DF01200CCC105F0CDC106F0CEC114
:101A3C0007F0CFC108F001C005F002C006F003C0EA
:101A4C0007F004C008F0089E05C001F006C002F0C3
:101A5C0007C003F008C004F012000150021003107C
:101A6C000410D8B43CEF0DF03EEF0DF046EF0DF046
:101A7C00000E011A000E021A000E031A800E041A30
:101A8C0001C001F002C002F003C003F004C004F076
:101A9C001200000E2E1A000E2F1A000E301A800E95
:101AAC00311A2AC001F02BC002F02CC003F02DC05B
:101ABC0004F02EC005F02FC006F030C007F031C086
:101ACC0008F00CEC1BF001C02AF002C02BF003C094
:101ADC002CF004C02DF01200046E0450D8B479EF31
:101AEC000DF07BEF0DF083EF0DF00404D8A481EF23
:101AFC000DF083EF0DF09DEF0DF00450D8A489EF9D
:101B0C000DF08BEF0DF08FEF0DF076EC0CF091EFFC
:101B1C000DF079EC0CF004C0E4F0400E0001E66F1F
:101B2C00E551AAEC0CF00001E651AAEC0CF0120005
:101B3C00000E936EE00E951676EC0CF03F0EAAECB0
:101B4C000CF079EC0CF03F0EAAEC0CF0000E046ECD
:101B5C000A0E036EECEC0CF076EC0CF0C00EAAEC5A
:101B6C000CF079EC0CF0C00EAAEC0CF0000E72EC40
:101B7C000DF031EC0EF0000E0001E46FB80EE56FC5
:101B8C00400EE66F000E72EC0DF012000C0EF66EAD
:101B9C00190EF76E000EF86E01EEBCF010EE10F0A0
:101BAC000900F5CFEEFFE550E150FAE1F80EF66EC4
:101BBC00180EF76E000EF86E00EEF8F010EE06F050
:101BCC000900F5CFEEFFE550E150FAE10101CF6BD2
:101BDC00CE6BCD6BCC6B00EEE4F0140EEE6AE80627
:101BEC00FDE1000EF86E0001CCEF1FF0000E096E47
:101BFC00000E0A6E000E0B6E000E0C6E01A009EFAB
:101C0C000EF00BEF0EF013EF0EF0055009260650F8
:101C1C000A2207500B2208500C22D89005360636A3
:101C2C0007360836D89004320332023201320150A2
:101C3C00021003100410D8A426EF0EF028EF0EF0BB
:101C4C0004EF0EF009C001F00AC002F00BC003F063
:101C5C000CC004F01200000E076E76EC0CF0400E77
:101C6C00AAEC0CF00750B80FAAEC0CF0000E066EA4
:101C7C00400E0618D8A445EF0EF047EF0EF050EFCB
:101C8C000EF079EC0CF0400EAAEC0CF00750B80FEB
:101C9C00AAEC0CF0000E8EEC0CF0062A7F0E0664FB
:101CAC005AEF0EF05CEF0EF03EEF0EF0072A070E27
:101CBC00076463EF0EF065EF0EF033EF0EF0000EDD
:101CCC00CAEC0CF012001F501B5C016E20501C580B
:101CDC00026E21501D58036E22501E58046E275060
:101CEC002B5C056E28502C58066E29502D58076E0B
:101CFC002A502E58086EFCEC0DF001C00DF002C0FD
:101D0C000EF003C00FF004C010F01F50235C116ED6
:101D1C0020502458126E21502558136E22502658EC
:101D2C00146E75EC11F027500D241B6E28500E20EC
:101D3C001C6E29500F201D6E2A5010201E6E120092
:101D4C000A6E080E0A60ADEF0EF0AFEF0EF0EBEF7F
:101D5C000EF0810E0960B5EF0EF0B7EF0EF0EBEF61
:101D6C000EF009C001F0026A000E046E400E036E04
:101D7C0096EC0FF001500B6E09C001F0026A000ED8
:101D8C00046E3F0E036E3EEC0FF00150096E0B50CB
:101D9C00D8A4D3EF0EF0D5EF0EF0D9EF0EF076EC11
:101DAC000CF0DBEF0EF079EC0CF00BC0E4F00A5009
:101DBC00B8090001E56F09504009E66FE651AAEC3D
:101DCC000CF00001E551AAEC0CF01200000E096EAB
:101DDC00000E0A6E000E0B6E000E0C6E05500610F7
:101DEC0007100810D8B4FDEF0EF0FFEF0EF035EF32
:101DFC000FF0010E0D6E09EF0FF0D8900536063678
:101E0C00073608360D2A08AE0EEF0FF010EF0FF064
:101E1C0003EF0FF0D89009360A360B360C36055006
:101E2C00015C065002580750035808500458D8A0BB
:101E3C0022EF0FF024EF0FF02DEF0FF00550015EA5
:101E4C000650025A0750035A0850045A0980D89079
:101E5C0008320732063205320D2E10EF0FF009C092
:101E6C0001F00AC002F00BC003F00CC004F0120029
:101E7C00000E066E02BE47EF0FF045EF0FF04DEF70
:101E8C000FF0016C021ED8B0022A010E066E04BEC1
:101E9C0054EF0FF052EF0FF058EF0FF0036C041EDD
:101EAC00D8B0042A03500410D8B45FEF0FF061EFE0
:101EBC000FF085EF0FF0010E056E69EF0FF0D89063
:101ECC0003360436052A04AE6EEF0FF070EF0FF0F8
:101EDC0065EF0FF00350015C04500258D8A079EF65
:101EEC000FF07BEF0FF07FEF0FF00350015E04500B
:101EFC00025AD89004320332052E70EF0FF00650C0
:101F0C00D8B48BEF0FF08DEF0FF091EF0FF0016C59
:101F1C00021ED8B0022A01C001F002C002F0120069
:101F2C00000E066E04BE9FEF0FF09DEF0FF0A5EFB5
:101F3C000FF0036C041ED8B0042A010E066E02BE0C
:101F4C00ACEF0FF0AAEF0FF0B2EF0FF0016C021E26
:101F5C00D8B0022A010E061A000E086E000E076E8B
:101F6C0003500410D8B4BDEF0FF0BFEF0FF0E7EF44
:101F7C000FF0010E056EC7EF0FF0D8900336043644
:101F8C00052A04AECCEF0FF0CEEF0FF0C3EF0FF03D
:101F9C00D890073608360350015C04500258D8A07C
:101FAC00DAEF0FF0DCEF0FF0E1EF0FF00350015E12
:101FBC000450025A0780D89004320332052ECEEF1B
:101FCC000FF00650D8B4EDEF0FF0EFEF0FF0F3EF8A
:101FDC000FF0076C081ED8B0082A07C001F008C023
:101FEC0002F01200096E000E086E0001E405D8A480
:101FFC0002EF10F004EF10F019EF10F0E651056E3F
:10200C00066A050E0526000E062206BE19EF10F014
:10201C00065007E1800E055CD8B017EF10F019EFF1
:10202C0010F022EF10F00A0E0918D8A420EF10F0CF
:10203C0022EF10F024EF10F0BAEC0CF00A0E091895
:10204C00D8B42BEF10F02DEF10F06EEF10F009500C
:10205C00E00F096E0001E451D8A437EF10F039EF0E
:10206C0010F045EF10F0800EE619D8A440EF10F0F8
:10207C0042EF10F045EF10F0010E72EC0DF009502C
:10208C00050DA90E056E7C0E066EF3500526F45058
:10209C00062208500526000E062205C0F6FF06C0D3
:1020AC00F7FF0800F5CF07F007508EEC0CF000019D
:1020BC00E62B082A050E0818D8A467EF10F069EF74
:1020CC0010F030EF10F0000E8EEC0CF00001E62B4F
:1020DC001200000E32143A6E000E33143B6E800E5A
:1020EC0034143C6E7F0E35143D6E3A503B103C1050
:1020FC003D10D8A484EF10F086EF10F08EEF10F0A6
:10210C00000E326E000E336E000E346E000E356E05
:10211C00000E36143A6E000E37143B6E800E3814D7
:10212C003C6E7F0E39143D6E3A503B103C103D1006
:10213C00D8A4A3EF10F0A5EF10F0ADEF10F0000E47
:10214C00366E000E376E000E386E000E396E35AEE0
:10215C00B2EF10F0B4EF10F0BDEF10F0326C331E94
:10216C00D8B0332A341ED8B0342A800E355639AE46
:10217C00C2EF10F0C4EF10F0CDEF10F0366C371E3C
:10218C00D8B0372A381ED8B0382A800E3956000EEF
:10219C00321A000E331A000E341A800E351A000E45
:1021AC00361A000E371A000E381A800E391A3650AD
:1021BC00325C375033583850345839503558D8B0C1
:1021CC00EAEF10F0ECEF10F0EFEF10F0D890F0EF2A
:1021DC0010F0D8801200000192359335596E595089
:1021EC00D8A4FBEF10F0FDEF10F007EF11F0000E8C
:1021FC00906F000E916F000E926F000E936F74EF44
:10220C0011F090C054F091C055F092C056F093C0AC
:10221C0057F0200E17EF11F0D89057325632553236
:10222C005432E82E12EF11F05450586E928FFF0E6C
:10223C009017FF0E9117FF0E9217000E9317960E24
:10224C00595E59BE2EEF11F02CEF11F044EF11F046
:10225C005950800A970FD8B036EF11F038EF11F0C3
:10226C003AEF11F0FDEF10F0D89093339233913395
:10227C009033593E3AEF11F05CEF11F01F0E596498
:10228C004AEF11F04CEF11F054EF11F0FDEF10F09C
:10229C00D890903791379237933759065950D8A424
:1022AC005AEF11F05CEF11F04EEF11F05850D8B41A
:1022BC0062EF11F064EF11F06CEF11F0931F921FAD
:1022CC00911F906D000E91239223932390C090F058
:1022DC0091C091F092C092F093C093F01200000E56
:1022EC00166E14BE7EEF11F07CEF11F088EF11F03A
:1022FC00141E131E121E116C000E12221322142215
:10230C00010E166E10BE8FEF11F08DEF11F099EFDC
:10231C0011F0101E0F1E0E1E0D6C000E0E220F2241
:10232C001022010E161A000E176E000E186E000EFB
:10233C00196E000E1A6E1150121013101410D8B41E
:10234C00AAEF11F0ACEF11F0E2EF11F0010E156EE7
:10235C00B6EF11F0D8901136123613361436152A02
:10236C0014AEBBEF11F0BDEF11F0B0EF11F0D8903F
:10237C001736183619361A3611500D5C12500E5885
:10238C0013500F5814501058D8A0CFEF11F0D1EFB4
:10239C0011F0DAEF11F011500D5E12500E5A13506D
:1023AC000F5A1450105A1780D8901432133212321C
:1023BC001132152EBDEF11F01650D8B4E8EF11F014
:1023CC00EAEF11F0F2EF11F01A1E191E181E176C1D
:1023DC00000E182219221A2217C00DF018C00EF088
:1023EC0019C00FF01AC010F01200096E0950D8B4C1
:1023FC0002EF12F004EF12F026EF12F004BE0BEF16
:10240C0012F009EF12F026EF12F001C005F002C035
:10241C0006F003C007F004C008F0051E061E071ED8
:10242C00081E052A000E06220722082205C00BF002
:10243C0006C00CF007C00DF008C00EF02EEF12F025
:10244C0001C00BF002C00CF003C00DF004C00EF084
:10245C000150021003100410D8A437EF12F039EF1A
:10246C0012F043EF12F0000E016E000E026E000E21
:10247C00036E000E046ED4EF12F0960E0A6E4DEF42
:10248C0012F00A2AD8900E320D320C320B32000E9A
:10249C000B14056E000E0C14066E000E0D14076E58
:1024AC00FE0E0E14086E0550061007100810D8A466
:1024BC0062EF12F064EF12F047EF12F072EF12F0CD
:1024CC000A2A010E0B26000E0C220D220E22D89089
:1024DC000E320D320C320B32000E0B14056E000E48
:1024EC000C14066E000E0D14076EFF0E0E14086E03
:1024FC000550061007100810D8A487EF12F089EFCA
:10250C0012F066EF12F091EF12F00A06D8900B362B
:10251C000C360D360E360DBE96EF12F098EF12F00B
:10252C00A0EF12F0020E0A609EEF12F0A0EF12F074
:10253C008BEF12F00AB0A5EF12F0A7EF12F0A8EF94
:10254C0012F00D9ED8900A320AC005F0066A076A8E
:10255C00086A05C008F0076A066A056A05500B127E
:10256C0006500C1207500D1208500E120950D8B418
:10257C00C2EF12F0C4EF12F0CCEF12F004BECBEFAE
:10258C0012F0C9EF12F0CCEF12F00E8E0BC001F06E
:10259C000CC002F00DC003F00EC004F012002AC0F3
:1025AC0038F02BC039F02CC03AF02DC03BF02FBEC8
:1025BC00E9EF12F02F5009E1800E2E5CD8A0E9EF64
:1025CC0012F0EBEF12F049EF13F038C011F039C0F4
:1025DC0012F03AC013F03BC014F0000E156E000E52
:1025EC00166E000E176E7F0E186EF7EC18F011C0F9
:1025FC0038F012C039F013C03AF014C03BF0810E21
:10260C002E26FF0E2F222FBE15EF13F02F5009E1AF
:10261C00800E2E5CD8A015EF13F017EF13F0B3EF6C
:10262C0013F038C011F039C012F03AC013F03BC0AF
:10263C0014F0000E156E000E166E000E176E7F0E47
:10264C00186EF7EC18F011C038F012C039F013C046
:10265C003AF014C03BF0810E2E26FF0E2F222FBE17
:10266C0041EF13F02F5009E1800E2E5CD8A041EF02
:10267C0013F043EF13F0B3EF13F0000E2F6E7F0E39
:10268C002E6EB3EF13F02FAE55EF13F0820E2E5CBF
:10269C00FF0E2F58D8B055EF13F057EF13F0B3EFE0
:1026AC0013F038C011F039C012F03AC013F03BC02F
:1026BC0014F0000E156E000E166E800E176E0C0EBA
:1026CC00186EF7EC18F011C038F012C039F013C0C6
:1026DC003AF014C03BF0660E2E26000E2F222FAEC1
:1026EC0081EF13F0820E2E5CFF0E2F58D8B081EFC5
:1026FC0013F083EF13F0B3EF13F038C011F039C0BF
:10270C0012F03AC013F03BC014F0000E156E000E20
:10271C00166E800E176E0C0E186EF7EC18F011C0BA
:10272C0038F012C039F013C03AF014C03BF0660E0A
:10273C002E26000E2F222FAEADEF13F0820E2E5C44
:10274C00FF0E2F58D8B0ADEF13F0AFEF13F0B3EF7F
:10275C0013F0FF0E2F6E820E2E6E7F0E2E24306E17
:10276C00000E2F20316E326A336A170ED890303635
:10277C00313632363336E82EBCEF13F030C034F03D
:10278C0031C035F032C036F033C037F034C011F000
:10279C0035C012F036C013F037C014F038C015F045
:1027AC0039C016F03AC017F03BC018F0F7EC18F02F
:1027BC0011C02AF012C02BF013C02CF014C02DF055
:1027CC002AC02AF02BC02BF02CC02CF02DC02DF0E1
:1027DC001200286E020E2818D8A4F7EF13F0F9EFA8
:1027EC0013F038EF14F02EEF14F012C013F0FF0EAC
:1027FC001326010E146E156A166A176A132A0CEF4B
:10280C0014F0D8901436153616361736132E07EFEB
:10281C0014F00E501414186E0F501514196E10502D
:10282C0016141A6E115017141B6E185019101A101A
:10283C001B10D8A424EF14F027EF14F0010E28EF8E
:10284C0014F0000E296E2950300FF8EC0FF0120620
:10285C001250D8A434EF14F036EF14F0FBEF13F051
:10286C001FEF15F00E500F1010101110D8A441EFDF
:10287C0014F043EF14F05EEF14F0000E296E4BEFE2
:10288C0014F0300EF8EC0FF0292A1250295CD8B055
:10289C0052EF14F054EF14F01FEF15F0090E2964E9
:1028AC005AEF14F05CEF14F047EF14F01FEF15F033
:1028BC00000E296EBBEF14F00E500F1010101110FB
:1028CC00D8B46BEF14F06DEF14F0A0EF14F01C0EF5
:1028DC002924D96EDA6A000EDA220EC001F00FC07C
:1028EC0002F010C003F011C004F02850056E066A07
:1028FC00076A086AECEC0EF001502802F3500E5CEB
:10290C00DF6E0EC001F00FC002F010C003F011C05A
:10291C0004F02850056E066A076A086AECEC0EF0A3
:10292C0001C00EF002C00FF003C010F004C011F093
:10293C00BAEF14F01228D8B4A6EF14F0A8EF14F0E4
:10294C0017EF15F00A0E1264AEEF14F0B0EF14F09E
:10295C00B2EF14F017EF15F01C0E2924D96EDA6AB9
:10296C00000EDA22000EDF6E292A1250295CD8A044
:10297C00C2EF14F0C4EF14F062EF14F017EF15F07F
:10298C00FF0E136EFF0E146E2950156E166A13503F
:10299C001526145016221C0E1524D96E000E162066
:1029AC00DA6E0A0EDF60DDEF14F0DFEF14F0FAEFF1
:1029BC0014F0FF0E136EFF0E146E2950156E166A6E
:1029CC0013501526145016221C0E1524D96E000E09
:1029DC001620DA6EDF50176E300E1724266E276A1B
:1029EC00000E272213EF15F0FF0E136EFF0E146E60
:1029FC002950156E166A13501526145016221C0EEB
:102A0C001524D96E000E1620DA6EDF50176E370EB5
:102A1C001724266E276A000E27222650F8EC0FF09A
:102A2C0029062950D8A41DEF15F01FEF15F0C6EF9D
:102A3C0014F012003550800B426E35503524496E1F
:102A4C0034AE2BEF15F02DEF15F02EEF15F049806D
:102A5C004950D8B434EF15F036EF15F04BEF15F0B4
:102A6C004928D8A43CEF15F03EEF15F046EF15F0D1
:102A7C00000E326E000E336E000E346E000E356E8C
:102A8C00348E000E356E53EF15F0000E326E000EC4
:102A9C00336E000E346E000E356E3950800B421AB8
:102AAC00395039244A6E38AE5EEF15F060EF15F0F0
:102ABC0061EF15F04A804A50D8B467EF15F069EF12
:102ACC0015F07EEF15F04A28D8A46FEF15F071EFD2
:102ADC0015F079EF15F0000E366E000E376E000E05
:102AEC00386E000E396E388E000E396E86EF15F08A
:102AFC00000E366E000E376E000E386E000E396EFC
:102B0C003650371038103910D8A48FEF15F091EFDC
:102B1C0015F0A9EF15F0000E326E000E336E000E9C
:102B2C00346E000E356E800E34127F0E351242500C
:102B3C00351232C032F033C033F034C034F035C00B
:102B4C0035F0ECEF16F04950D8A4AFEF15F0B1EF1B
:102B5C0015F0BBEF15F0000E326E000E336E000E4A
:102B6C00346E000E356EECEF16F04A5049C03AF058
:102B7C003B6A3A5E000E3B5A7F0E3A24436E000EBF
:102B8C003B20446E32C03EF033C03FF034C040F0C6
:102B9C0035C041F0000E326E000E336E000E346EF6
:102BAC00000E356E000E456E000E466E000E476E22
:102BBC00000E486E000E4A6E1CEF16F04A50D8B448
:102BCC00EAEF15F0ECEF15F003EF16F0D8903E3667
:102BDC003F3640364136D890323633363436353679
:102BEC0048AEFBEF15F0FDEF15F0FEEF15F032805F
:102BFC00D890453646364736483636503E5C3750C8
:102C0C003F583850405839504158D8A010EF16F062
:102C1C0012EF16F01BEF16F0488C36503E5E375014
:102C2C003F5A3850405A3950415A4A2A190E4A6470
:102C3C0022EF16F024EF16F0E4EF15F03E503F10A3
:102C4C0040104110D8B42DEF16F02FEF16F047EFCF
:102C5C0016F0458047EF16F0D890323633363436BE
:102C6C00353648AE3CEF16F03EEF16F03FEF16F05F
:102C7C003280D89045364636473648364306D8A07B
:102C8C00440634AE4CEF16F04EEF16F032EF16F061
:102C9C00000E4A6E48AE55EF16F057EF16F07BEF6C
:102CAC0016F0FF0E45143A6EFF0E46143B6EFF0EE7
:102CBC0047143C6E7F0E48143D6E3A503B103C104E
:102CCC003D10D8B46CEF16F06EEF16F072EF16F0F4
:102CDC00010E4A6E7BEF16F032A077EF16F079EF0B
:102CEC0016F07BEF16F06EEF16F04A50D8B481EF69
:102CFC0016F083EF16F0A7EF16F0010E3226000E39
:102D0C0033223422352235A08EEF16F090EF16F0D8
:102D1C00A7EF16F032C03AF033C03BF034C03CF0B1
:102D2C0035C03DF03D343D323C323B323A323AC054
:102D3C0032F03BC033F03CC034F03DC035F0434A78
:102D4C00442A44BEB2EF16F0445008E14328D8A000
:102D5C00B2EF16F0B4EF16F0BFEF16F0000E446EA3
:102D6C004368000E326E000E336E000E346E000E91
:102D7C00356E44BECCEF16F0445006E14304D8B097
:102D8C00CAEF16F0CCEF16F0DAEF16F0000E446E28
:102D9C00000E436E000E326E000E336E000E346E5B
:102DAC00000E356E000E426E43C049F049A0E1EFB3
:102DBC0016F0E3EF16F0E6EF16F0348EE7EF16F0B0
:102DCC00349ED8904930356E9DEF15F012002D0EC3
:102DDC00446E000E456E2AC03FF02BC040F02CC054
:102DEC0041F0E6EF18F03FC0F6FF40C0F7FF41C0DE
:102DFC00F8FF0800F5CF42F0250E4218D8A409EFD1
:102E0C0017F00BEF17F0DDEF18F0010E3F26000E58
:102E1C004022000E41223FC0F6FF40C0F7FF41C0E8
:102E2C00F8FF0800F5CF42F02F0E426420EF17F0A8
:102E3C0022EF17F055EF17F03A0E426028EF17F01B
:102E4C002AEF17F055EF17F0000E436E43EF17F013
:102E5C0043500A0DF3504224D00F436E010E3F260F
:102E6C00000E4022000E41223FC0F6FF40C0F7FF8B
:102E7C0041C0F8FF0800F5CF42F02F0E426449EF35
:102E8C0017F04BEF17F058EF17F0390E426451EF73
:102E9C0017F053EF17F02EEF17F092EF18F043687E
:102EAC0092EF18F092EF18F044C0D9FF45C0DAFF4A
:102EBC00DF50426E020E4426000E45224250F8ECC2
:102ECC000FF0E0EF18F044C0D9FF45C0DAFFDECFB9
:102EDC0035F0DDCF36F0020E4426000E452236BE0C
:102EEC007CEF17F07AEF17F083EF17F0356C361E86
:102EFC00D8B0362A2D0EF8EC0FF035C00EF036C0D7
:102F0C000FF0000E0FBEFF0E106E116E43C012F0CC
:102F1C000A0EEFEC13F0E0EF18F044C0D9FF45C0F7
:102F2C00DAFFDECF37F0DDCF38F0020E4426000E8C
:102F3C00452238BEA6EF17F0A4EF17F0ADEF17F04F
:102F4C00376C381ED8B0382A2D0EF8EC0FF037C07D
:102F5C000EF038C00FF0000E0FBEFF0E106E116E8B
:102F6C0043C012F00A0EEFEC13F0E0EF18F044C07F
:102F7C00D9FF45C0DAFFDECF3DF0DDCF3EF0020ECB
:102F8C004426000E45223DC00EF03EC00FF0106AE4
:102F9C00116A43C012F00A0EEFEC13F0E0EF18F0D8
:102FAC0044C0D9FF45C0DAFFDECF39F0DECF3AF0AE
:102FBC00DECF3BF0DECF3CF0040E4426000E452263
:102FCC0039C00EF03AC00FF03BC010F03CC011F00D
:102FDC0043C012F00A0EEFEC13F0E0EF18F044C00F
:102FEC00D9FF45C0DAFFDECF3DF0DDCF3EF0020E5B
:102FFC004426000E45223DC00EF03EC00FF0106A74
:10300C00116A43C012F0100EEFEC13F0E0EF18F061
:10301C0044C0D9FF45C0DAFFDECF39F0DECF3AF03D
:10302C00DECF3BF0DECF3CF0040E4426000E4522F2
:10303C0039C00EF03AC00FF03BC010F03CC011F09C
:10304C0043C012F0100EEFEC13F0E0EF18F044C098
:10305C00D9FF45C0DAFFDECF3DF0DDCF3EF0020EEA
:10306C004426000E45224328D8A43FEF18F041EF28
:10307C0018F043EF18F0100E436E3DC00EF03EC03A
:10308C000FF0106A116A43C012F0020EEFEC13F04D
:10309C00E0EF18F044C0D9FF45C0DAFFDECF39F0BD
:1030AC00DECF3AF0DECF3BF0DECF3CF0040E442610
:1030BC00000E45224328D8A466EF18F068EF18F0EC
:1030CC006AEF18F0100E436E39C00EF03AC00FF0D4
:1030DC003BC010F03CC011F043C012F0020EEFECFC
:1030EC0013F0E0EF18F044C0D9FF45C0DAFFDECF93
:1030FC0033F0DDCF34F0020E4426000E452233C0EF
:10310C000AF034C00BF001EC0DF0E0EF18F0250ED6
:10311C00F8EC0FF0E0EF18F04250316E326A32509A
:10312C00000AD8B49CEF18F0E0EF18F03150250AE3
:10313C00D8B48DEF18F0670AD8B450EF18F0010A24
:10314C00D8B45AEF17F0070AD8B493EF17F0020A65
:10315C00D8B4DBEF18F0150AD8B479EF18F0060ADA
:10316C00D8B4D6EF17F00D0AD8B40EEF18F03A0A0F
:10317C00D8B42DEF18F0010AD8B45AEF17F0070A9B
:10318C00D8B469EF17F0020AD8B4E0EF18F0150ABA
:10319C00D8B479EF18F0060AD8B4BDEF17F00D0AC1
:1031AC00D8B4F5EF17F0E0EF18F0E0EF18F042505C
:1031BC00F8EC0FF0010E3F26000E4022000E4122CB
:1031CC003FC0F6FF40C0F7FF41C0F8FF0800F550C4
:1031DC000009D8A4F4EF18F0F6EF18F0F9EF16F098
:1031EC0012001450800B1D6E14501424236E13AE59
:1031FC0002EF19F004EF19F005EF19F023802350BA
:10320C00D8B40BEF19F00DEF19F020EF19F02328BB
:10321C00D8A413EF19F015EF19F01DEF19F0000EEB
:10322C00116E000E126E000E136E000E146E138EC5
:10323C0028EF19F0000E116E000E126E000E136EB8
:10324C00000E146E1850800B1D1A18501824226E84
:10325C0017AE33EF19F035EF19F036EF19F0228075
:10326C002250D8B43CEF19F03EEF19F051EF19F0A1
:10327C002228D8A444EF19F046EF19F04EEF19F0BC
:10328C00000E156E000E166E000E176E000E186EE8
:10329C00178E59EF19F0000E156E000E166E000EFB
:1032AC00176E000E186E2250D8B45FEF19F061EF54
:1032BC0019F069EF19F02350D8A467EF19F069EFF2
:1032CC0019F073EF19F0000E116E000E126E000E55
:1032DC00136E000E146E0BEF1BF017501102F3CF90
:1032EC0028F0F4CF29F028501E6E1F6A206A216A3C
:1032FC002950246E256A266A276A16501202F3CFCB
:10330C0028F0F4CF29F028501E26000E1F22202270
:10331C00212229502426000E252226222722155050
:10332C001302F3CF28F0F4CF29F028501E26000EFC
:10333C001F222022212229502426000E252226225B
:10334C00272220C021F01FC020F01EC01FF01E6AD3
:10335C0015501202F3CF28F0F4CF29F028501E2676
:10336C0029501F22000E2022000E2122165011027D
:10337C00F3CF28F0F4CF29F028501E2629501F2215
:10338C00000E2022000E212220C021F01FC020F0B0
:10339C001EC01FF01E6A15501102F3CF28F0F4CF97
:1033AC0029F028501E2629501F22000E2022000E24
:1033BC00212217501202F3CF28F0F4CF29F0285015
:1033CC00242629502522000E2622000E27221650D4
:1033DC001302F3CF28F0F4CF29F0285024262950DB
:1033EC002522000E2622000E272217501302F3CF9F
:1033FC0028F0F4CF29F02850196E29501A6E1B6A48
:10340C001C6A1BC01CF01AC01BF019C01AF0196AF8
:10341C00195024261A5025221B5026221C502722D4
:10342C001EC019F01FC01AF020C01BF021C01CF0E8
:10343C00190E26EF1AF0D8901C321B321A321932A0
:10344C00E82E21EF1AF0195024261A5025221B5071
:10345C0026221C50272220C021F01FC020F01EC0A5
:10346C001FF01E6A225023C019F01A6A1926000E8A
:10347C001A22820E1924286EFF0E1A20296E5CEF78
:10348C001AF0D890243625362636273621AE51EF41
:10349C001AF053EF1AF054EF1AF02480D8901E361D
:1034AC001F36203621362806D8A0290626AE61EF15
:1034BC001AF063EF1AF047EF1AF0000E226E21AEED
:1034CC006AEF1AF06CEF1AF090EF1AF0FF0E1E1460
:1034DC00196EFF0E1F141A6EFF0E20141B6E7F0E3A
:1034EC0021141C6E19501A101B101C10D8B481EF2B
:1034FC001AF083EF1AF087EF1AF0010E226E90EF9C
:10350C001AF024A08CEF1AF08EEF1AF090EF1AF04C
:10351C0083EF1AF02250D8B496EF1AF098EF1AF005
:10352C00BCEF1AF0010E2426000E2522262227229B
:10353C0027A0A3EF1AF0A5EF1AF0BCEF1AF024C0E5
:10354C0019F025C01AF026C01BF027C01CF01C3443
:10355C001C321B321A32193219C024F01AC025F051
:10356C001BC026F01CC027F0284A292A29BEC7EF09
:10357C001AF0295008E12828D8A0C7EF1AF0C9EF93
:10358C001AF0D3EF1AF0000E246E000E256E800E8A
:10359C00266E7F0E276E01EF1BF029BEE0EF1AF0AE
:1035AC00295006E12804D8B0DEEF1AF0E0EF1AF04B
:1035BC00ECEF1AF0000E246E000E256E000E266E37
:1035CC00000E276E000E1D6E01EF1BF028C023F0BD
:1035DC00FF0E2416FF0E25167F0E2616000E27163C
:1035EC0023A0FBEF1AF0FDEF1AF0FEEF1AF0268E77
:1035FC00D8902330276E1D50271224C011F025C0FF
:10360C0012F026C013F027C014F012000450800BE7
:10361C000D6E045004240F6E03AE17EF1BF019EF60
:10362C001BF01AEF1BF00F800F50D8B420EF1BF0DB
:10363C0022EF1BF037EF1BF00F28D8A428EF1BF05C
:10364C002AEF1BF032EF1BF0000E016E000E026E23
:10365C00000E036E000E046E038E000E046E3FEF20
:10366C001BF0000E016E000E026E000E036E000EBB
:10367C00046E0850800B0E6E0D500E18D8B449EF26
:10368C001BF04BEF1BF04CEF1BF00D8C085008247B
:10369C000E6E07AE54EF1BF056EF1BF057EF1BF0FE
:1036AC000E800E50D8B45DEF1BF05FEF1BF074EF83
:1036BC001BF00E28D8A465EF1BF067EF1BF06FEF23
:1036CC001BF0000E056E000E066E000E076E000E4F
:1036DC00086E078E000E086E7CEF1BF0000E056E58
:1036EC00000E066E000E076E000E086E0F500E5C7C
:1036FC00D8B083EF1BF085EF1BF0ACEF1BF00DACDB
:10370C008AEF1BF08CEF1BF08EEF1BF0800E0D1A66
:10371C000FC010F00EC00FF010C00EF001C010F072
:10372C0005C001F010C005F002C010F006C002F098
:10373C0010C006F003C010F007C003F010C007F073
:10374C0004C010F008C004F010C008F0000E106E99
:10375C000F500EC009F00A6A095E000E0A5A0ABE22
:10376C00C1EF1BF00A5009E11A0E095CD8A0C1EF99
:10377C001BF0C3EF1BF0FAEF1BF00150021003100B
:10378C000410D8A4CCEF1BF0CFEF1BF0010ED0EF40
:10379C001BF0000E106E000E016E000E026E000E7D
:1037AC00036E000E046E0EC00FF003EF1CF010A0A1
:1037BC00E2EF1BF0E4EF1BF0EAEF1BF0D8901030B7
:1037CC000109106EECEF1BF0D890103201A0F1EF54
:1037DC001BF0F3EF1BF0F4EF1BF0108E04340432EB
:1037EC000332023201320F2A0E500F5CD8A001EFC7
:1037FC001CF003EF1CF0DDEF1BF00DBC08EF1CF010
:10380C000AEF1CF04AEF1CF00F50D8A410EF1CF07C
:10381C0012EF1CF01CEF1CF0000E016E000E026E7D
:10382C00000E036E000E046E6BEF1DF005500126AA
:10383C0006500222075003220850042204A029EF4C
:10384C001CF02BEF1CF0D7EF1CF010A030EF1CF08D
:10385C0032EF1CF038EF1CF0D89010300109106ECC
:10386C003AEF1CF0D890103201A03FEF1CF041EF62
:10387C001CF042EF1CF0108E04340432033202327E
:10388C0001320F2AD7EF1CF00550015C065002588C
:10389C00075003580450800A096E0850800A0958D2
:1038AC00D8B05BEF1CF05DEF1CF088EF1CF0015002
:1038BC00055C096E025006580A6E035007580B6ED1
:1038CC00045008580C6EFF0E0924016EFF0E0A20DE
:1038DC00026EFF0E0B20036EFF0E0C20046E800E8A
:1038EC000D1A106C1050D8A47EEF1CF080EF1CF059
:1038FC0090EF1CF0010E0126000E0222032204227E
:10390C0090EF1CF00550015E0650025A0750035A06
:10391C000850045A0150021003100410D8A499EF57
:10392C001CF09BEF1CF0D0EF1CF01050D8A4A1EFB2
:10393C001CF0A3EF1CF0D0EF1CF0000E016E000E7B
:10394C00026E000E036E000E046E6BEF1DF0D8902D
:10395C00013602360336043610AEB7EF1CF0B9EF61
:10396C001CF0BAEF1CF0018010A0BFEF1CF0C1EFEF
:10397C001CF0C5EF1CF0D8801036C7EF1CF0D890A7
:10398C0010360F50D8B4CDEF1CF0CFEF1CF0D0EFA9
:10399C001CF00F0603AED5EF1CF0D7EF1CF0ADEF0B
:1039AC001CF0000E0E6E10AEDEEF1CF0E0EF1CF003
:1039BC00F8EF1CF010C009F07F0E0916D8B4E9EF2F
:1039CC001CF0EBEF1CF0EFEF1CF0010E0E6EF8EF9D
:1039DC001CF001A0F4EF1CF0F6EF1CF0F8EF1CF05B
:1039EC00EBEF1CF00E50D8B4FEEF1CF000EF1DF006
:1039FC002BEF1DF0010E0126000E022203220422E1
:103A0C0004A00BEF1DF00DEF1DF02BEF1DF001C00E
:103A1C0009F002C00AF003C00BF004C00CF00C3427
:103A2C000C320B320A32093209C001F00AC002F022
:103A3C000BC003F00CC004F00F28D8B428EF1DF015
:103A4C002AEF1DF02BEF1DF00F2A0F28D8B431EF01
:103A5C001DF033EF1DF03BEF1DF00F50D8A439EFE4
:103A6C001DF03BEF1DF04DEF1DF0000E016E000E32
:103A7C00026E000E036E000E046E0F50D8A449EFB8
:103A8C001DF04BEF1DF04DEF1DF0000E0D6E0FA055
:103A9C0052EF1DF054EF1DF057EF1DF0038E58EF51
:103AAC001DF0039ED8900F30046E0DAE60EF1DF02C
:103ABC0062EF1DF063EF1DF0048E01C001F002C037
:103ACC0002F003C003F004C004F012003EC06CF01E
:103ADC003FC06DF040C06EF041C06FF06CC084F020
:103AEC006DC085F06EC086F06FC087F0000E0001CF
:103AFC008415426E000E8515436E800E8615446E3D
:103B0C007F0E8715456E800E441809E17F0E45180F
:103B1C0042104310D8A495EF1DF097EF1DF0C5EFA0
:103B2C001DF03EC015F03FC016F040C017F041C06C
:103B3C0018F03EC011F03FC012F040C013F041C06D
:103B4C0014F0F7EC18F011C001F012C002F013C021
:103B5C0003F014C004F03EC005F03FC006F040C0B6
:103B6C0007F041C008F00CEC1BF001C03EF002C0A5
:103B7C003FF003C040F004C041F0CBEF1FF087BF13
:103B8C00D4EF1DF087518611851106E18405D8B05C
:103B9C00D2EF1DF0D4EF1DF010EF1EF0FF0E8415C8
:103BAC00426EFF0E8515436EFF0E8615446E7F0E1A
:103BBC008715456E4250431044104510D8A4E9EFC8
:103BCC001DF0EBEF1DF0F5EF1DF03EC03EF03FC0D9
:103BDC003FF040C040F041C041F0CBEF1FF087BF39
:103BEC00FCEF1DF0FAEF1DF010EF1EF0000EF16F60
:103BFC00210EF06FD90E016E7F0E026EDBEC0CF015
:103C0C0001C03EF002C03FF003C040F004C041F0E0
:103C1C00CBEF1FF0170E426E84C043F085C044F00A
:103C2C0086C045F087C046F042661FEF1EF027EFB6
:103C3C001EF046344632453244324332422E1AEF9D
:103C4C001EF043C07CF044C07DF045C07EF046C001
:103C5C007FF000017C517D117E117F11D8A439EFCA
:103C6C001EF03BEF1EF06BEF1EF0000E686F000EA7
:103C7C00696F000E6A6F000E6B6F50EF1EF0D890DC
:103C8C008437853786378737010E6827000E6923FE
:103C9C006A236B2386AF55EF1EF057EF1EF045EFEE
:103CAC001EF0FF0E6825426EFF0E6921436EFF0E5B
:103CBC006A21446EFF0E6B21456E42507C5F43506F
:103CCC007D5B44507E5B45507F5B810E7C27FF0EF5
:103CDC007D23FF0E7E23FF0E7F23FF0E8415426E85
:103CEC00FF0E8515436E7F0E8615446E000E8715EC
:103CFC00456E000E4210846F000E4310856F800ECF
:103D0C004410866F000E4510876F7CA190EF1EF05B
:103D1C0092EF1EF09AEF1EF0845184278551852373
:103D2C0086518623875187237F357F337E337D33BE
:103D3C007C33845184278551852386518623875172
:103D4C008723000E646F000E656F000E666F000E09
:103D5C00676F64C070F065C071F066C072F067C0C8
:103D6C0073F0000E806F000E816F000E826F010EDB
:103D7C00836F09EF1FF064518025746F65518121A9
:103D8C00756F66518221766F67518321776F7451FD
:103D9C00845D75518559765186598751800A426EDA
:103DAC007751800A4258D8A0DEEF1EF0E0EF1EF0EB
:103DBC00FCEF1EF074518025646F75518121656F85
:103DCC0076518221666F77518321676F7451845FBE
:103DDC007551855B7651865B7751875B8051702777
:103DEC00815171238251722383517323845184270F
:103DFC00855185238651862387518723D890833319
:103E0C008233813380338051811182118311D8A484
:103E1C0012EF1FF014EF1FF0C1EF1EF0845185114B
:103E2C0086118711D8B41DEF1FF01FEF1FF080EF24
:103E3C001FF0000E786F000E796F800E7A6F3F0EB8
:103E4C007B6F78C032F079C033F07AC034F07BC02D
:103E5C0035F0000E366E000E376E800E386E3F0E4B
:103E6C00396E6FEC10F0D8A03EEF1FF040EF1FF052
:103E7C0080EF1FF0000E0001786F000E796F800E3E
:103E8C007A6F3F0E7B6F000E326E000E336E800E1B
:103E9C00346E3F0E356E78C036F079C037F07AC08C
:103EAC0038F07BC039F06FEC10F0D8B060EF1FF039
:103EBC0062EF1FF06BEF1FF0020E00017027000E77
:103ECC0071237223732380EF1FF0010E0001701514
:103EDC00426E000E7115436E000E7215446E000E8C
:103EEC007315456E42507027435071234450722312
:103EFC004550732370C042F071C043F072C044F05F
:103F0C0073C045F045344532443243324232000EE0
:103F1C0042240001846F000E4320856F000E442064
:103F2C00866F3F0E4520876F7CC042F07DC043F00A
:103F3C007EC044F07FC045F0170ED8904236433611
:103F4C0044364536E82EA3EF1FF0425084274350E9
:103F5C008523445086234550872384C06CF085C04C
:103F6C006DF086C06EF087C06FF06CC078F06DC0DD
:103F7C0079F06EC07AF06FC07BF078C03EF079C0FB
:103F8C003FF07AC040F07BC041F01200C2EF27F046
:103F9C00030E966E070E946E000E0001C56F0F0E89
:103FAC00C46F000ECE6F0F0ECD6F000ED96F010EC9
:103FBC00D86FD8C009F0070EA6EC0EF0D8C001F0EF
:103FCC00D9C002F0000E046E0A0E036E3EEC0FF028
:103FDC0001500210D8A4F5EF1FF0F7EF1FF0FCEF23
:103FEC001FF0C00E8EEC0CF0FFEF1FF0800E8EEC6D
:103FFC000CF00001D84BD92BD9BF0EEF20F0D951C2
:10400C0009E1800ED85DD8A00EEF20F010EF20F063
:10401C00DFEF1FF0000E0001DD6F070EDC6FDDBF60
:10402C001CEF20F01AEF20F01EEF20F042EF20F0F2
:10403C00000E096EDC51A6EC0EF00001DCB129EF8C
:10404C0020F02BEF20F039EF20F0FF0E8EEC0CF06F
:10405C00010E096E0001DC51A6EC0EF0010E8EEC87
:10406C000CF03CEF20F0FF0E8EEC0CF00001DC07A6
:10407C00D8A0DD0715EF20F00E0EC16E010EC26E3A
:10408C00B10EC06E030EC26EC2A24FEF20F051EF04
:10409C0020F07BEF20F0C450FF0DF3CF5AF0F4CF9B
:1040AC005BF0C3505A26000E5B225AC0ECF05BC08A
:1040BC00EDF0000EEDBFFF0EEE6FEF6FEFBF71EF87
:1040CC0020F0EF51EE1109E1040EED5DD8A071EF77
:1040DC0020F073EF20F07BEF20F0FF0EEC6F030E5F
:1040EC00ED6F000EEE6F000EEF6F82505A6E5B6A32
:1040FC00070ED8905A365B36E82E7FEF20F08450AE
:10410C005C6E5D6A050ED8905C365D36E82E89EFE4
:10411C0020F0D89080305E6E5F6A5C505E265D50F9
:10412C005F225A505E24F66F5B505F20F76F000ED3
:10413C00D46F000ED36FD4BFADEF20F0D45109E192
:10414C00800ED35DD8A0ADEF20F0AFEF20F0B1EF33
:10415C0020F0D9EF20F0F6C001F0F7C002F0000E0D
:10416C00046EA00E036E96EC0FF001C0B6F002C008
:10417C00B7F0D3C009F00001B651A6EC0EF0800EDA
:10418C008EEC0CF00001D34BD42BD4BFD7EF20F026
:10419C00D45109E1800ED35DD8A0D7EF20F0D9EF30
:1041AC0020F0B1EF20F0000EF36F7F0EF26FCD4BCD
:1041BC00CE2BCEBFEBEF20F0CE5109E1810ECD5DC1
:1041CC00D8A0EBEF20F0EDEF20F0F1EF20F0C4C021
:1041DC00CDF0C5C0CEF0000EB56F0F0EB46FECC0B5
:1041EC000DF0EDC00EF0EEC00FF0EFC010F0B4C04B
:1041FC0011F0B5C012F0000E12BEFF0E136E146E4D
:10420C0075EC11F00DC0B2F00EC0B3F0B2C05AF0A4
:10421C00B3C05BF0D8905A365B36D8905A365B36C2
:10422C00D8905A365B365AC001F05BC002F0000ED3
:10423C00046E3F0E036E96EC0FF001C0C8F002C086
:10424C00C9F0000E0001C76F060EC66FC851C65DDF
:10425C00C751800A5A6EC951800A5A58D8B039EFE2
:10426C0021F03BEF21F03FEF21F0C6C0C8F0C7C0F2
:10427C00C9F0070EEC15B06FB16BB0C001F0B1C056
:10428C0002F0000E02BEFF0E036E046E010EFBEC7C
:10429C0011F001C0ACF002C0ADF003C0AEF004C030
:1042AC00AFF0ACC08CF0ADC08DF0AEC08EF0AFC036
:1042BC008FF0000E0001886F000E896F000E8A6F60
:1042CC00400E8B6FE2EC27F088C090F089C091F023
:1042DC008AC092F08BC093F0F1EC10F00001905179
:1042EC00BC6FCDC009F0C851A6EC0EF00001BC515A
:1042FC008EEC0CF010EF20F0030E966E070E946E01
:10430C000E0EC16E010EC26EB10EC06E030EC26EE9
:10431C00C2A293EF21F095EF21F0A9EF21F0C45048
:10432C00FF0DF3CF5AF0F4CF5BF0C3505A26000EBA
:10433C005B225AC0ECF05BC0EDF00001000EEDBF4B
:10434C00FF0EEE6FEF6F000E096E000EA6EC0EF076
:10435C000001EC51ED11EE11EF11D8B4B8EF21F0D2
:10436C00BAEF21F0CFEF21F0D00E2A6E7F0E2B6E1C
:10437C002A502B10D8A4000E2C6EECC02DF0EDC0E2
:10438C002EF0EEC02FF0EFC030F0EDEC16F0E2EFB7
:10439C0021F0C50E2A6E7F0E2B6E2A502B10D8A43E
:1043AC00000E2C6EECC02DF0EDC02EF0EEC02FF0F8
:1043BC00EFC030F0EDEC16F0000E0001CB6F000EEC
:1043CC00CA6FCBBFF3EF21F0CB5109E12D0ECA5DC3
:1043DC00D8A0F3EF21F0F5EF21F0F7EF21F007EF84
:1043EC0022F0FC0E2A6E7F0E2B6E2A502B10D8A4B6
:1043FC00000E2C6EEDEC16F00001CA4BCB2BE7EF48
:10440C0021F0000E096E020EA6EC0EF00001EFBFBB
:10441C001CEF22F0EF51EE110BE1440EEC5D030E9C
:10442C00ED59D8A01CEF22F01EEF22F02BEF22F05A
:10443C00780E2A6E7F0E2B6E2A502B10D8A4000EED
:10444C002C6EEDEC16F086EF21F0EFBF3AEF22F078
:10445C00EF51EE110BE12B0EEC5D030EED59D8A0D4
:10446C003AEF22F03CEF22F05AEF22F0EFBF4DEF83
:10447C0022F0EF51EE1109E1440EEC5D030EED5903
:10448C00D8B04BEF22F04DEF22F05AEF22F09A0EFB
:10449C002A6E7F0E2B6E2A502B10D8A4000E2C6E79
:1044AC00EDEC16F086EF21F0EFBF69EF22F0EF5143
:1044BC00EE110BE1170EEC5D030EED59D8A069EF70
:1044CC0022F06BEF22F089EF22F0EFBF7CEF22F0AD
:1044DC00EF51EE1109E12B0EEC5D030EED59D8B046
:1044EC007AEF22F07CEF22F089EF22F0890E2A6E0F
:1044FC007F0E2B6E2A502B10D8A4000E2C6EEDECD8
:10450C0016F086EF21F0EFBF98EF22F0EF51EE118D
:10451C000BE18B0EEC5D020EED59D8A098EF22F05A
:10452C009AEF22F0B8EF22F0EFBFABEF22F0EF5191
:10453C00EE1109E1A90EEC5D020EED59D8B0A9EF10
:10454C0022F0ABEF22F0B8EF22F0530E2A6E7F0E62
:10455C002B6E2A502B10D8A4000E2C6EEDEC16F0FE
:10456C0086EF21F0EFBFC7EF22F0EF51EE110BE118
:10457C004B0EEC5D010EED59D8A0C7EF22F0C9EF40
:10458C0022F0E7EF22F0EFBFDAEF22F0EF51EE115D
:10459C0009E1730EEC5D010EED59D8B0D8EF22F0A5
:1045AC00DAEF22F0E7EF22F0160E2A6E7F0E2B6E5A
:1045BC002A502B10D8A4000E2C6EEDEC16F086EFC2
:1045CC0021F0EFBFF5EF22F0EF51EE11ED1109E103
:1045DC00650EEC5DD8A0F5EF22F0F7EF22F014EFAA
:1045EC0023F0EFBF07EF23F0EF51EE11ED1107E1D0
:1045FC00A60EEC5DD8B005EF23F007EF23F014EF17
:10460C0023F03F0E2A6E7F0E2B6E2A502B10D8A44F
:10461C00000E2C6EEDEC16F086EF21F0000E2A6EDB
:10462C007F0E2B6E2A502B10D8A4000E2C6EEDECA6
:10463C0016F086EF21F0030E966E070E946E0E0E9A
:10464C00C16E010EC26EB10EC06E030EC26EC2A25E
:10465C0032EF23F034EF23F048EF23F0C450FF0D7A
:10466C00F3CF5AF0F4CF5BF0C3505A26000E5B2206
:10467C005AC0ECF05BC0EDF00001000EEDBFFF0E78
:10468C00EE6FEF6FECC01BF0EDC01CF0EEC01DF038
:10469C00EFC01EF0000E1F6E000E206E000E216E7D
:1046AC00000E226EFF0E236E030E246E000E256E7E
:1046BC00000E266E2C0E276E010E286E000E296E33
:1046CC00000E2A6EFF0E2B6E030E2C6E000E2D6E3E
:1046DC00000E2E6E69EC0EF01BC0E8F01CC0E9F069
:1046EC001DC0EAF01EC0EBF0000E096E000EA6EC29
:1046FC000EF0E40E2A6E7F0E2B6E2A502B10D8A4CF
:10470C00000E2C6EE8C02DF0E9C02EF0EAC02FF0A0
:10471C00EBC030F0EDEC16F082505A6E5B6A070E6F
:10472C00D8905A365B36E82E96EF23F084505C6EA8
:10473C005D6A050ED8905C365D36E82EA0EF23F04E
:10474C00D89080305E6E5F6A5C505E265D505F2252
:10475C005A505E240001F66F5B505F20F76F000E1D
:10476C00096E010EA6EC0EF00001F7BFC9EF23F0A5
:10477C002C0EF65D010EF759D8B0C7EF23F0C9EF38
:10478C0023F0D6EF23F0660E2A6E7F0E2B6E2A5086
:10479C002B10D8A4000E2C6EEDEC16F00EEF24F0BE
:1047AC00B80E2A6E7F0E2B6E2A502B10D8A4000E3A
:1047BC002C6EF6C02DF0F7C02EF0EDEC16F0000EBE
:1047CC00096E020EA6EC0EF0000E0001F7BFFF0EF4
:1047DC005B6E800A5A6EE851F65DE951F759EA5161
:1047EC005B58EB51800A5A58D8B0FFEF23F001EF19
:1047FC0024F00EEF24F02B0E2A6E7F0E2B6E2A5017
:10480C002B10D8A4000E2C6EEDEC16F00EEF24F04D
:10481C00210E926E070E966E94680E0EC16E010EEE
:10482C00C26EB10EC06E9EEC0DF0000E0001BF6F9B
:10483C00000EBE6F020ED76F020ED76F000ED06F38
:10484C00000ECF6F000ED26F030ED16F82B031EF1E
:10485C0024F033EF24F02CEF24F0010EC26EB10ED5
:10486C00C06EC282C2A23DEF24F03FEF24F053EFA2
:10487C0024F0C450FF0DF3CF5AF0F4CF5BF0C350CB
:10488C005A26000E5B225AC0E0F05BC0E1F000013A
:10489C00000EE1BFFF0EE26FE36F000E096E000E1B
:1048AC00A6EC0EF0ED0E2A6E7F0E2B6E2A502B10FE
:1048BC00D8A4000E2C6EE0C02DF0E1C02EF0E2C0AA
:1048CC002FF0E3C030F0EDEC16F0000E0001C36FDA
:1048DC00000EC26F000E096E050EA6EC0EF0000164
:1048EC00E3BF85EF24F0E351E2110BE1ED0EE05D47
:1048FC00020EE159D8A085EF24F087EF24F099EF50
:10490C0024F0780E2A6E7F0E2B6E2A502B10D8A412
:10491C00000E2C6EEDEC16F0000E0001C36F000EB5
:10492C00C26FD0EF25F0E3BFA8EF24F0E351E21102
:10493C000BE1CC0EE05D020EE159D8A0A8EF24F0FB
:10494C00AAEF24F0D5EF24F0E3BFBBEF24F0E35142
:10495C00E21109E1DB0EE05D020EE159D8B0B9EFCE
:10496C0024F0BBEF24F0D5EF24F09A0E2A6E7F0EC4
:10497C002B6E2A502B10D8A4000E2C6EEDEC16F0DA
:10498C00000E0001C36F010EC26F100EA827270E78
:10499C00A923000EAA23000EAB23D0EF25F0E3BF12
:1049AC00E4EF24F0E351E2110BE1A90EE05D020EFD
:1049BC00E159D8A0E4EF24F0E6EF24F011EF25F054
:1049CC00E3BFF7EF24F0E351E21109E1C70EE05D1C
:1049DC00020EE159D8B0F5EF24F0F7EF24F011EF07
:1049EC0025F0890E2A6E7F0E2B6E2A502B10D8A420
:1049FC00000E2C6EEDEC16F0000E0001C36F020ED3
:104A0C00C26F880EA827130EA923000EAA23000E2E
:104A1C00AB23D0EF25F0E3BF20EF25F0E351E211FB
:104A2C000BE18B0EE05D020EE159D8A020EF25F0D2
:104A3C0022EF25F04DEF25F0E3BF33EF25F0E351E6
:104A4C00E21109E1A90EE05D020EE159D8B031EF97
:104A5C0025F033EF25F04DEF25F0530E2A6E7F0E27
:104A6C002B6E2A502B10D8A4000E2C6EEDEC16F0E9
:104A7C00000E0001C36F030EC26FD00EA827070EE5
:104A8C00A923000EAA23000EAB23D0EF25F0E3BF21
:104A9C005CEF25F0E351E2110BE14B0EE05D010EF2
:104AAC00E159D8A05CEF25F05EEF25F089EF25F0F9
:104ABC00E3BF6FEF25F0E351E21109E1730EE05D06
:104ACC00010EE159D8B06DEF25F06FEF25F089EFAD
:104ADC0025F0160E2A6E7F0E2B6E2A502B10D8A4A2
:104AEC00000E2C6EEDEC16F0000E0001C36F040EE0
:104AFC00C26FE80EA827030EA923000EAA23000EEE
:104B0C00AB23D0EF25F0E3BF97EF25F0E351E21193
:104B1C00E11109E1650EE05DD8A097EF25F099EF62
:104B2C0025F0C3EF25F0E3BFA9EF25F0E351E21127
:104B3C00E11107E1A60EE05DD8B0A7EF25F0A9EFD3
:104B4C0025F0C3EF25F03F0E2A6E7F0E2B6E2A50F8
:104B5C002B10D8A4000E2C6EEDEC16F0000E0001FC
:104B6C00C36F050EC26FF40EA827010EA923000E09
:104B7C00AA23000EAB23D0EF25F0A90E2A6E7F0ED0
:104B8C002B6E2A502B10D8A4000E2C6EEDEC16F0C8
:104B9C0092EF24F0C2900F0EC16E210E926E070E92
:104BAC00966ED751FF0ABD6FBDC080FFF6EF25F0A2
:104BBC00000EC16F000EC06F13EF26F0000EC16F18
:104BCC00010EC06F13EF26F0000EC16F020EC06F06
:104BDC0013EF26F0000EC16F030EC06F13EF26F01B
:104BEC00D7515A6E5B6A5B50000AD8B400EF26F0BE
:104BFC0013EF26F05A50020AD8B4DEEF25F0060A5D
:104C0C00D8B4E4EF25F00C0AD8B4EAEF25F0180A72
:104C1C00D8B4F0EF25F013EF26F080BA18EF26F099
:104C2C001AEF26F020EF26F0000EDF6F010EDE6F7C
:104C3C004BEF26F084B025EF26F027EF26F02DEF72
:104C4C0026F0000EDF6F020EDE6F4BEF26F084B203
:104C5C0032EF26F034EF26F03AEF26F0000EDF6F3D
:104C6C00030EDE6F4BEF26F084B43FEF26F041EFDE
:104C7C0026F047EF26F0000EDF6F040EDE6F4BEFD1
:104C8C0026F0000EDF6F000EDE6FFF0EDE25B86F14
:104C9C00FF0EDF21B96F21EEBCF010EE94F00F0E79
:104CAC00DBCFE3FFE806FCE2000ED66F010ED56FFA
:104CBC00DEC0BAF0DFC0BBF0000EDB6F000EDA6FA7
:104CCC00DBBF72EF26F0DB5109E1040EDA5DD8A0F0
:104CDC0072EF26F074EF26F076EF26F095EF26F0C3
:104CEC00DA51060DF3CF09F0070EA6EC0EF0A40E68
:104CFC000001DA25D96E000EDB21DA6EDF505A6E18
:104D0C005B6A5C6A5AC02AF05BC02BF05CC02CF06A
:104D1C00EDEC16F00001DA4BDB2B66EF26F0DFBF73
:104D2C00A0EF26F0DF5108E1DE05D8A0A0EF26F0B9
:104D3C00A2EF26F078EF27F0000ED26F010ED16FA4
:104D4C00CFC009F0D151A6EC0EF0C0C05AF0C1C0D2
:104D5C005BF0D8905A365B36D8905A365B36940E48
:104D6C005C6E000E5D6E5A505C265B505D2200013D
:104D7C00B8515C24D96EB9515D20DA6EDF50CC6F1E
:104D8C00F90E2A6E7F0E2B6E2A502B10D8A4000E13
:104D9C002C6ECCC02DF02E6AEDEC16F00001D54B2C
:104DAC00D62B000EDF6F010EDE6F060ECF27000E26
:104DBC00D023D6BFEDEF26F0D65107E1050ED55D19
:104DCC00D8B0EBEF26F0EDEF26F009EF27F0A40EAC
:104DDC00D525D96E000ED621DA6ECCC0DFFFD507F3
:104DEC00D8A0D607DA0E2A6E7F0E2B6E2A502B1007
:104DFC00D8A4000E2C6ED5C02DF0D6C02EF0EDEC44
:104E0C0016F00DEF27F0000ED66F010ED56F0001D6
:104E1C00D0BF1AEF27F0D05109E1130ECF5DD8A007
:104E2C001AEF27F01CEF27F034EF27F0D14BD22BE1
:104E3C00000ED06F000ECF6FD2BF2EEF27F0D251E5
:104E4C0009E1080ED15DD8A02EEF27F030EF27F046
:104E5C0034EF27F0000ED26F030ED16F80BA39EF0A
:104E6C0027F03BEF27F041EF27F0000EDF6F010E2C
:104E7C00DE6F6CEF27F084B046EF27F048EF27F099
:104E8C004EEF27F0000EDF6F020EDE6F6CEF27F097
:104E9C0084B253EF27F055EF27F05BEF27F0000EAD
:104EAC00DF6F030EDE6F6CEF27F084B460EF27F03A
:104EBC0062EF27F068EF27F0000EDF6F040EDE6F55
:104ECC006CEF27F0000EDF6F000EDE6FDE51BA19AB
:104EDC0009E1DF51BB19D8B476EF27F078EF27F052
:104EEC0034EF27F0D751D725D76FBE4BBF2BBFBFA1
:104EFC0089EF27F0BF5109E1040EBE5DD8A089EF00
:104F0C0027F08BEF27F091EF27F0000EBF6F000E0C
:104F1C00BE6F020ED76F82A096EF27F098EF27F0A6
:104F2C00ACEF27F031EC0EF0000E096E000EA6EC83
:104F3C000EF0F50E2A6E7F0E2B6E2A502B10D8A475
:104F4C00000E2C6EEDEC16F02CEF24F082A2B1EFDB
:104F5C0027F0B3EF27F033EF24F031EC0EF00B0E0B
:104F6C005B6E260E5A6E5E0EE82EFED75A2EFCD7BE
:104F7C005B2EFAD733EF24F0F8C05AF0F9C05BF08F
:104F8C005B50000AD8B4CDEF27F0E0EF27F05A5071
:104F9C00010AD8B4CEEF1FF0030AD8B482EF21F087
:104FAC00010AD8B421EF23F0070AD8B40EEF24F08D
:104FBC00E0EF27F000EF00F088C0B8F189C0B9F13C
:104FCC008AC0BAF18BC0BBF1B8C160F1B9C161F153
:104FDC00BAC162F1BBC163F18CC0B8F18DC0B9F13B
:104FEC008EC0BAF18FC0BBF1B8C184F1B9C185F1E3
:104FFC00BAC186F1BBC187F1FF0E01016015A86F24
:10500C00FF0E6115A96FFF0E6215AA6F7F0E631557
:10501C00AB6FFF0E8415986FFF0E8515996FFF0E01
:10502C0086159A6F7F0E87159B6F985199119A115F
:10503C009B11D8A424EF28F026EF28F031EF28F0AC
:10504C00000E0001886F000E896F800E8A6F3F0E74
:10505C008B6F53EF3CF0800E621909E13F0E631920
:10506C0060116111D8A43DEF28F03FEF28F04AEF12
:10507C0028F0000E0001886F000E896F800E8A6F79
:10508C003F0E8B6F53EF3CF0ABBF5BEF28F0A805E6
:10509C00000EA959800EAA597F0EAB59D8B059EF02
:1050AC0028F05BEF28F06CEF28F09BBF6AEF28F03C
:1050BC009805000E9959800E9A597F0E9B59D8A0CD
:1050CC006AEF28F06CEF28F088EF28F088C001F028
:1050DC0089C002F08AC003F08BC004F08CC005F0CC
:1050EC008DC006F08EC007F08FC008F00CEC1BF0E2
:1050FC0001C088F002C089F003C08AF004C08BF0B4
:10510C0053EF3CF0000E506F000E516F000E526FBB
:10511C00000E536F63BF97EF28F095EF28F042EF26
:10512C0029F09BBFA3EF28F0800E9A5D4B0E9B5984
:10513C00D8A0A3EF28F0A5EF28F0AFEF28F0020ECF
:10514C00506F000E516F000E526F000E536F42EFF6
:10515C0029F09BBFBBEF28F0800E9A5D3F0E9B5948
:10516C00D8A0BBEF28F0BDEF28F042EF29F0170EC6
:10517C004B6E98C14CF099C14DF09AC14EF09BC149
:10518C004FF04B66CCEF28F0D4EF28F04F344F3271
:10519C004E324D324C324B2EC7EF28F0810E4C2440
:1051AC000101A06FFF0E4D20A16FFF0E4E20A26FCC
:1051BC00FF0E4F20A36FA05117084B6E98C14CF0F7
:1051CC0099C14DF09AC14EF09BC14FF04B66F1EF77
:1051DC0028F0F9EF28F04F344F324E324D324C322A
:1051EC004B2EECEF28F04CC0ACF14DC0ADF14EC0E5
:1051FC00AEF14FC0AFF10101A05117084B6EACC11D
:10520C004CF0ADC14DF0AEC14EF0AFC14FF04B2ADA
:10521C0015EF29F0D8904C364D364E364F364B2E76
:10522C0010EF29F098514C180DE199514D180AE1E5
:10523C009A514E1807E19B514F18D8A428EF29F02A
:10524C002AEF29F042EF29F0010EAC154B6E000E3F
:10525C00AD154C6E000EAE154D6E000EAF154E6EAC
:10526C004B500208506F000E4C54516F000E4D54B1
:10527C00526F000E4E54536F800E9A1909E17F0E37
:10528C009B1998119911D8A44EEF29F050EF29F0E1
:10529C00BCEF29F0800EAA1909E13F0EAB19A81139
:1052AC00A911D8A45CEF29F05EEF29F069EF29F081
:1052BC00000E0001886F000E896F800E8A6F3F0E02
:1052CC008B6F53EF3CF0ABBF78EF29F0A805000EC5
:1052DC00A959800EAA593F0EAB59D8A078EF29F0E6
:1052EC007AEF29F096EF29F087BF81EF29F07FEF55
:1052FC0029F08CEF29F0000E0001886F000E896FE9
:10530C00000E8A6F000E8B6F53EF3CF08CC088F050
:10531C008DC089F08EC08AF08FC08BF053EF3CF0BB
:10532C0087BF9DEF29F09BEF29F0B1EF29F08CC0DE
:10533C0001F08DC002F08EC003F08FC004F033EC8E
:10534C000DF001C088F002C089F003C08AF004C0DF
:10535C008BF053EF3CF0000E0001886F000E896F4C
:10536C00000E8A6F000E8B6F53EF3CF0800E9A1973
:10537C0009E13F0E9B1998119911D8A4C8EF29F097
:10538C00CAEF29F0F7EF29F087BFD1EF29F0CFEF63
:10539C0029F0EDEF29F0000E326E000E336E800E08
:1053AC00346E3F0E356E88C036F089C037F08AC037
:1053BC0038F08BC039F020EC15F032C088F033C0D7
:1053CC0089F034C08AF035C08BF053EF3CF088C0C4
:1053DC0088F089C089F08AC08AF08BC08BF053EFBB
:1053EC003CF0400E8719841185118611D8A401EF69
:1053FC002AF003EF2AF01FEF2AF088C011F089C0C1
:10540C0012F08AC013F08BC014F088C015F089C05C
:10541C0016F08AC017F08BC018F0F7EC18F011C01A
:10542C0088F012C089F013C08AF014C08BF053EFCF
:10543C003CF03F0E8719841185118611D8A429EFF1
:10544C002AF02BEF2AF046EF2AF063BF30EF2AF058
:10545C0032EF2AF046EF2AF088C03EF089C03FF0C8
:10546C008AC040F08BC041F06CEC1DF03EC088F05F
:10547C003FC089F040C08AF041C08BF053EF3CF044
:10548C0088C001F089C002F08AC003F08BC004F020
:10549C0019EC0DF001C070F102C071F103C072F192
:1054AC0004C073F1800E0101AA190BE17F0EAB1938
:1054BC00A811A911D8B465EF2AF067EF2AF080EF94
:1054CC002AF0A851A911AA11AB11D8B470EF2AF087
:1054DC0072EF2AF080EF2AF0800EAA1909E13F0E34
:1054EC00AB19A811A911D8A47EEF2AF080EF2AF0ED
:1054FC003BEF2BF070C1B4F171C1B5F172C1B6F1D3
:10550C0073C1B7F187BF8FEF2AF08DEF2AF0A9EFA7
:10551C002AF0000E326E000E336E800E346E3F0E8B
:10552C00356EB4C136F0B5C137F0B6C138F0B7C17D
:10553C0039F020EC15F032C0B4F133C0B5F134C001
:10554C00B6F135C0B7F1010163BFB1EF2AF0AFEF8F
:10555C002AF031EF2BF0000EA8254B6E000EA9217E
:10556C004C6E800EAA214D6EC00EAB214E6E50516A
:10557C004B104F6E51514C10506E52514D10516E8C
:10558C0053514E10526E4F50501051105210D8A40F
:10559C00D2EF2AF0D4EF2AF014EF2BF0B4C12EF096
:1055AC00B5C12FF0B6C130F0B7C131F0B4C12AF09B
:1055BC00B5C12BF0B6C12CF0B7C12DF04FEC0DF0EE
:1055CC002AC032F02BC033F02CC034F02DC035F093
:1055DC00B4C12EF0B5C12FF0B6C130F0B7C131F067
:1055EC00B4C12AF0B5C12BF0B6C12CF0B7C12DF067
:1055FC004FEC0DF02AC036F02BC037F02CC038F031
:10560C002DC039F020EC15F032C0B4F133C0B5F137
:10561C0034C0B6F135C0B7F131EF2BF05005511154
:10562C0052115311D8A41DEF2BF01FEF2BF031EFBB
:10563C002BF0B4C101F0B5C102F0B6C103F0B7C193
:10564C0004F033EC0DF001C0B4F102C0B5F103C0AD
:10565C00B6F104C0B7F1B4C188F0B5C189F0B6C1D8
:10566C008AF0B7C18BF053EF3CF0000E886F000E40
:10567C00896F800E8A6F3F0E8B6F63BF4AEF2BF0E2
:10568C0048EF2BF0A8EF2BF0505151115211531140
:10569C00D8A453EF2BF055EF2BF095EF2BF088C0DF
:1056AC002EF089C02FF08AC030F08BC031F088C04A
:1056BC002AF089C02BF08AC02CF08BC02DF04FEC57
:1056CC000DF02AC032F02BC033F02CC034F02DC0BA
:1056DC0035F088C02EF089C02FF08AC030F08BC016
:1056EC0031F088C02AF089C02BF08AC02CF08BC016
:1056FC002DF04FEC0DF02AC036F02BC037F02CC03B
:10570C0038F02DC039F020EC15F032C088F033C0E1
:10571C0089F034C08AF035C08BF053EF3CF0500563
:10572C00511152115311D8A49EEF2BF0A0EF2BF076
:10573C00A8EF2BF0000E886F000E896F800E8A6F19
:10574C00BF0E8B6F9BBFB7EF2BF09805000E9959CE
:10575C00000E9A594D0E9B59D8A0B7EF2BF0B9EF0C
:10576C002BF03EEF2EF0ABBFCBEF2BF0F80EA85D7D
:10577C00FF0EA9597F0EAA593F0EAB59D8B0C9EFED
:10578C002BF0CBEF2BF03EEF2CF087BFD0EF2BF0B4
:10579C00D2EF2BF008EF2CF0600E156E420E166E49
:1057AC00A20E176E0D0E186E88C111F089C112F081
:1057BC008AC113F08BC114F0F7EC18F011C0A4F1EE
:1057CC0012C0A5F113C0A6F114C0A7F1A4C111F029
:1057DC00A5C112F0A6C113F0A7C114F0600E156E8E
:1057EC00420E166EA20E176E0D0E186EF7EC18F018
:1057FC0011C088F012C089F013C08AF014C08BF06D
:10580C0053EF3CF0CA0E156EF20E166E490E176E63
:10581C00710E186E88C111F089C112F08AC113F093
:10582C008BC114F0F7EC18F011C0A4F112C0A5F163
:10583C0013C0A6F114C0A7F1A4C111F0A5C112F0B8
:10584C00A6C113F0A7C114F0CA0E156EF20E166E97
:10585C00490E176E710E186EF7EC18F011C088F027
:10586C0012C089F013C08AF014C08BF053EF3CF0D7
:10587C00ABBF4EEF2CF0080EA85D000EA959800EA0
:10588C00AA593F0EAB59D8A04EEF2CF050EF2CF08C
:10589C00CBEF2CF087BF5FEF2CF087518611851171
:1058AC0006E18405D8B05DEF2CF05FEF2CF095EF9E
:1058BC002CF0600E156E420E166EA20E176E0D0EAB
:1058CC00186E88C111F089C112F08AC113F08BC116
:1058DC0014F0F7EC18F011C0A4F112C0A5F113C02C
:1058EC00A6F114C0A7F1A4C111F0A5C112F0A6C174
:1058FC0013F0A7C114F0600E156E420E166EA20EB8
:10590C00176E0D0E186EF7EC18F011C088F012C05F
:10591C0089F013C08AF014C08BF053EF3CF0CA0E20
:10592C00156EF20E166E490E176E710E186E88C13A
:10593C0011F089C112F08AC113F08BC114F0F7EC8D
:10594C0018F011C0A4F112C0A5F113C0A6F114C037
:10595C00A7F1A4C111F0A5C112F0A6C113F0A7C103
:10596C0014F0CA0E156EF20E166E490E176E710EED
:10597C00186EF7EC18F011C088F012C089F013C043
:10598C008AF014C08BF053EF3CF070C101F071C180
:10599C0002F072C103F073C104F0000E056E000E2C
:1059AC00066E800E076EBF0E086E0CEC1BF001C06D
:1059BC00B0F102C0B1F103C0B2F104C0B3F1000EFA
:1059CC00156E000E166E800E176E3E0E186EB0C160
:1059DC0011F0B1C112F0B2C113F0B3C114F0F7EC75
:1059EC0018F011C02EF012C02FF013C030F014C0FC
:1059FC0031F0AB0E2A6EAA0E2B6EAA0E2C6E3E0E3A
:105A0C002D6E4FEC0DF02AC0A4F12BC0A5F12CC0CB
:105A1C00A6F12DC0A7F1B0C115F0B1C116F0B2C1FD
:105A2C0017F0B3C118F0B0C111F0B1C112F0B2C18E
:105A3C0013F0B3C114F0F7EC18F011C054F112C00C
:105A4C0055F113C056F114C057F1B0C115F0B1C1E6
:105A5C0016F0B2C117F0B3C118F0A4C111F0A5C172
:105A6C0012F0A6C113F0A7C114F0F7EC18F011C096
:105A7C002EF012C02FF013C030F014C031F0000E15
:105A8C002A6E000E2B6E000E2C6E3F0E2D6E4FEC00
:105A9C000DF02AC048F12BC049F12CC04AF12DC0A1
:105AAC004BF154C111F055C112F056C113F057C14E
:105ABC0014F048C115F049C116F04AC117F04BC19A
:105ACC0018F0F7EC18F011C044F112C045F113C0F6
:105ADC0046F114C047F1B0C111F0B1C112F0B2C11E
:105AEC0013F0B3C114F0000E156EAA0E166EB80E9C
:105AFC00176E3F0E186EF7EC18F011C074F112C04F
:105B0C0075F113C076F114C077F1700E156EA50EF9
:105B1C00166EEC0E176E360E186EB0C111F0B1C1C8
:105B2C0012F0B2C113F0B3C114F0F7EC18F011C0BD
:105B3C002AF012C02BF013C02CF014C02DF03B0E29
:105B4C00156EAA0E166EB80E176E3F0E186E44C167
:105B5C0011F045C112F046C113F047C114F0F7EC37
:105B6C0018F011C02EF012C02FF013C030F014C07A
:105B7C0031F04FEC0DF02AC078F12BC079F12CC02C
:105B8C007AF12DC07BF174C101F075C102F076C1C0
:105B9C0003F077C104F078C105F079C106F07AC141
:105BAC0007F07BC108F00CEC1BF001C080F102C0C7
:105BBC0081F103C082F104C083F180C1B8F181C1CD
:105BCC00B9F182C1BAF183C1BBF1B8C190F1B9C1CD
:105BDC0091F1BAC192F1BBC193F1000E0101901584
:105BEC00B86FF00E9115B96FFF0E9215BA6FFF0ECC
:105BFC009315BB6FB8C180F1B9C181F1BAC182F103
:105C0C00BBC183F174C12EF075C12FF076C130F099
:105C1C0077C131F080C12AF081C12BF082C12CF008
:105C2C0083C12DF04FEC0DF02AC094F12BC095F1EF
:105C3C002CC096F12DC097F178C12AF079C12BF0C8
:105C4C007AC12CF07BC12DF094C12EF095C12FF0B0
:105C5C0096C130F097C131F04FEC0DF02AC01CF119
:105C6C002BC01DF12CC01EF12DC01FF186EF35F09D
:105C7C00000E7C6F000E7D6F000E7E6F000E7F6F2E
:105C8C00ABBF54EF2EF0AB5107E1800EAA5DD8B03C
:105C9C0052EF2EF054EF2EF087EF2EF070C111F072
:105CAC0071C112F072C113F073C114F0000E156EB5
:105CBC00000E166E800E176E4B0E186EF7EC18F069
:105CCC0011C070F112C071F113C072F114C073F1F4
:105CDC00E80E01017C27FF0E7D23FF0E7E23FF0EB5
:105CEC007F2370C1B8F171C1B9F172C1BAF173C13E
:105CFC00BBF1B8C1A8F1B9C1A9F1BAC1AAF1BBC134
:105D0C00ABF1170E4B6EA8C14CF0A9C14DF0AAC156
:105D1C004EF0ABC14FF04B6696EF2EF09EEF2EF08F
:105D2C004F344F324E324D324C324B2E91EF2EF0CF
:105D3C00810E4C24506EFF0E4D20516EFF0E4E20E6
:105D4C00526EFF0E4F20536E505001017C27515064
:105D5C007D2352507E2353507F23FF0EA815AC6F2A
:105D6C00FF0EA915AD6F7F0EAA15AE6F000EAB1509
:105D7C00AF6F000EAC11A86F000EAD11A96F800EA5
:105D8C00AE11AA6F3F0EAF11AB6FAFBFDDEF2EF0B0
:105D9C00AF510BE1720EAC5DC40EAD591C0EAE5979
:105DAC00D8B0DBEF2EF0DDEF2EF0E7EF2EF0000E8B
:105DBC00A06F000EA16F000EA26F000EA36F19EF63
:105DCC002FF0AFBFF9EF2EF0AF510BE1D70EAC5D5A
:105DDC00B30EAD595D0EAE59D8B0F7EF2EF0F9EF0A
:105DEC002EF003EF2FF0010EA06F000EA16F000E2E
:105DFC00A26F000EA36F19EF2FF0000EA06F000E14
:105E0C00A16F000EA26F000EA36F010E7C27000E77
:105E1C007D237E237F23000EA827000EA923800E4E
:105E2C00AA23FF0EAB23A8C1B8F1A9C1B9F1AAC12D
:105E3C00BAF1ABC1BBF1B8C170F1B9C171F1BAC162
:105E4C0072F1BBC173F170C12AF071C12BF072C138
:105E5C002CF073C12DF0A0C14BF0A1C14CF0D89027
:105E6C004B364C36D8904B364C36EC0E4B24F66EEB
:105E7C007E0E4C20F76E0900F5CF2EF00900F5CF01
:105E8C002FF00900F5CF30F00A00F5CF31F04FECD0
:105E9C000DF02AC074F12BC075F12CC076F12DC019
:105EAC0077F1000E326E000E336E800E346E3F0EA4
:105EBC00356E70C105F071C106F072C107F073C187
:105ECC0008F0A0C14BF0A1C14CF0D8904B364C3629
:105EDC00D8904B364C36EC0E4B24F66E7E0E4C2086
:105EEC00F76E0900F5CF01F00900F5CF02F00900BB
:105EFC00F5CF03F00A00F5CF04F00CEC1BF001C059
:105F0C0036F002C037F003C038F004C039F020EC92
:105F1C0015F032C078F133C079F134C07AF135C064
:105F2C007BF174C111F075C112F076C113F077C119
:105F3C0014F078C115F079C116F07AC117F07BC155
:105F4C0018F0F7EC18F011C05CF112C05DF113C041
:105F5C005EF114C05FF15CC16CF15DC16DF15EC1AD
:105F6C006EF15FC16FF16CC1B8F16DC1B9F16EC169
:105F7C00BAF16FC1BBF1B8C190F1B9C191F1BAC11D
:105F8C0092F1BBC193F1000E01019015B86FF00EA8
:105F9C009115B96FFF0E9215BA6FFF0E9315BB6F6B
:105FAC00B8C16CF1B9C16DF1BAC16EF1BBC16FF181
:105FBC00A8C14BF0A9C14CF0AAC14DF0ABC14EF039
:105FCC004E344E324D324C324B32000E4B144F6E1F
:105FDC00F00E4C14506EFF0E4D14516EFF0E4E14FD
:105FEC00526E000E4F10906F000E5010916F000EFD
:105FFC005110926F200E5210936FA0C14BF0A1C1A3
:10600C004CF0A2C14DF0A3C14EF0150ED8904B36FA
:10601C004C364D364E36E82E0CEF30F090514B246A
:10602C004F6E91514C20506E92514D20516E9351A8
:10603C004E20526E000E4F24B86F000E5020B96FD8
:10604C00400E5120BA6F000E5220BB6FB8C168F1E0
:10605C00B9C169F1BAC16AF1BBC16BF1A0C14BF016
:10606C00A1C14CF0D8904B364C36D8904B364C36B0
:10607C00EC0E4B24F66E7E0E4C20F76E0900F5CF1D
:10608C002EF00900F5CF2FF00900F5CF30F00A0003
:10609C00F5CF31F068C12AF069C12BF06AC12CF040
:1060AC006BC12DF04FEC0DF02AC094F12BC095F183
:1060BC002CC096F12DC097F170C12AF071C12BF054
:1060CC0072C12CF073C12DF094C12EF095C12FF03C
:1060DC0096C130F097C131F04FEC0DF02AC034F17D
:1060EC002BC035F12CC036F12DC037F168C115F03D
:1060FC0069C116F06AC117F06BC118F06CC111F0D0
:10610C006DC112F06EC113F06FC114F0F7EC18F002
:10611C0011C02EF012C02FF013C030F014C031F0AB
:10612C0074C12AF075C12BF076C12CF077C12DF01B
:10613C004FEC0DF02AC094F12BC095F12CC096F1C8
:10614C002DC097F134C115F035C116F036C117F0DA
:10615C0037C118F06CC111F06DC112F06EC113F0A3
:10616C006FC114F0F7EC18F011C02EF012C02FF024
:10617C0013C030F014C031F094C12AF095C12BF04B
:10618C0096C12CF097C12DF04FEC0DF02AC054F1B4
:10619C002BC055F12CC056F12DC057F154C111F044
:1061AC0055C112F056C113F057C114F078C115F057
:1061BC0079C116F07AC117F07BC118F0F7EC18F022
:1061CC0011C030F112C031F113C032F114C033F1EF
:1061DC005CC111F05DC112F05EC113F05FC114F02F
:1061EC005CC115F05DC116F05EC117F05FC118F00F
:1061FC00F7EC18F011C08CF112C08DF113C08EF1B8
:10620C0014C08FF1550E056E320E066E6C0E076EB5
:10621C003E0E086E420E156EF10E166E530E176E74
:10622C003E0E186E8CC111F08DC112F08EC113F0A0
:10623C008FC114F0F7EC18F011C001F012C002F08D
:10624C0013C003F014C004F00CEC1BF001C0A4F15B
:10625C0002C0A5F103C0A6F104C0A7F1050E056E9E
:10626C00A30E066E8B0E076E3E0E086E8CC115F0DB
:10627C008DC116F08EC117F08FC118F0A4C111F0AA
:10628C00A5C112F0A6C113F0A7C114F0F7EC18F0D9
:10629C0011C001F012C002F013C003F014C004F0DE
:1062AC000CEC1BF001C054F102C055F103C056F1C7
:1062BC0004C057F1AB0E056EAA0E066EAA0E076E41
:1062CC003E0E086E8CC115F08DC116F08EC117F004
:1062DC008FC118F054C111F055C112F056C113F012
:1062EC0057C114F0F7EC18F011C001F012C002F015
:1062FC0013C003F014C004F00CEC1BF001C048F107
:10630C0002C049F103C04AF104C04BF1B70E056E4F
:10631C006D0E066EDB0E076E3E0E086E8CC115F010
:10632C008DC116F08EC117F08FC118F048C111F055
:10633C0049C112F04AC113F04BC114F0F7EC18F03C
:10634C0011C001F012C002F013C003F014C004F02D
:10635C000CEC1BF001C038F102C039F103C03AF16A
:10636C0004C03BF19A0E056E990E066E190E076E5F
:10637C003F0E086E8CC115F08DC116F08EC117F052
:10638C008FC118F038C111F039C112F03AC113F0B5
:10639C003BC114F0F7EC18F011C001F012C002F080
:1063AC0013C003F014C004F00CEC1BF001C000F19E
:1063BC0002C001F103C002F104C003F18CC115F05D
:1063CC008DC116F08EC117F08FC118F08CC111F071
:1063DC008DC112F08EC113F08FC114F0F7EC18F0D0
:1063EC0011C004F112C005F113C006F114C007F17D
:1063FC0000C111F001C112F002C113F003C114F07D
:10640C0004C115F005C116F006C117F007C118F04C
:10641C00F7EC18F011C04CF112C04DF113C04EF155
:10642C0014C04FF130C115F031C116F032C117F064
:10643C0033C118F05CC105F05DC106F05EC107F018
:10644C005FC108F06CC101F06DC102F06EC103F0C8
:10645C006FC104F00CEC1BF001C011F002C012F083
:10646C0003C013F004C014F0F7EC18F011C058F18D
:10647C0012C059F113C05AF114C05BF14CC101F0B8
:10648C004DC102F04EC103F04FC104F058C105F0EC
:10649C0059C106F05AC107F05BC108F00CEC1BF0B7
:1064AC0001C04CF102C04DF103C04EF104C04FF1DC
:1064BC006CC111F06DC112F06EC113F06FC114F00C
:1064CC006CC115F06DC116F06EC117F06FC118F0EC
:1064DC00F7EC18F011C08CF112C08DF113C08EF1D5
:1064EC0014C08FF1000E056E000E066E400E076E86
:1064FC00400E086E8CC101F08DC102F08EC103F00C
:10650C008FC104F00CEC1BF001C058F102C059F122
:10651C0003C05AF104C05BF158C101F059C102F03B
:10652C005AC103F05BC104F04CC105F04DC106F03B
:10653C004EC107F04FC108F00CEC1BF001C068F124
:10654C0002C069F103C06AF104C06BF168C1B8F113
:10655C0069C1B9F16AC1BAF16BC1BBF1B8C190F1B3
:10656C00B9C191F1BAC192F1BBC193F1000E010115
:10657C009015B86FF00E9115B96FFF0E9215BA6F9A
:10658C00FF0E9315BB6FB8C168F1B9C169F1BAC1FF
:10659C006AF1BBC16BF1000E056E000E066E400E6B
:1065AC00076EC00E086E68C101F069C102F06AC1C5
:1065BC0003F06BC104F00CEC1BF001C03CF102C009
:1065CC003DF103C03EF104C03FF18CC12EF08DC1F2
:1065DC002FF08EC130F08FC131F03CC12AF03DC19B
:1065EC002BF03EC12CF03FC12DF04FEC0DF02AC02A
:1065FC0040F12BC041F12CC042F12DC043F14CC1F4
:10660C002AF04DC12BF04EC12CF04FC12DF040C1E2
:10661C002EF041C12FF042C130F043C131F04FECAC
:10662C000DF02AC034F12BC035F12CC036F12DC041
:10663C0037F16CC111F06DC112F06EC113F06FC166
:10664C0014F068C115F069C116F06AC117F06BC17E
:10665C0018F0F7EC18F011C074F112C075F113C0FA
:10666C0076F114C077F168C115F069C116F06AC1F2
:10667C0017F06BC118F030C111F031C112F032C1FA
:10668C0013F033C114F0F7EC18F011C001F012C084
:10669C0002F013C003F014C004F05CC115F05DC12E
:1066AC0016F05EC117F05FC118F034C111F035C19E
:1066BC0012F036C113F037C114F0F7EC18F011C01A
:1066CC0005F012C006F013C007F014C008F00CEC73
:1066DC001BF001C078F102C079F103C07AF104C05B
:1066EC007BF174C101F075C102F076C103F077C182
:1066FC0004F078C105F079C106F07AC107F07BC1CE
:10670C0008F00CEC1BF001C09CF102C09DF103C021
:10671C009EF104C09FF19CC1B8F19DC1B9F19EC11D
:10672C00BAF19FC1BBF1B8C190F1B9C191F1BAC135
:10673C0092F1BBC193F1000E01019015B86FF00EF0
:10674C009115B96FFF0E9215BA6FFF0E9315BB6FB3
:10675C00B8C19CF1B9C19DF1BAC19EF1BBC19FF109
:10676C0074C12EF075C12FF076C130F077C131F0C5
:10677C009CC12AF09DC12BF09EC12CF09FC12DF025
:10678C004FEC0DF02AC094F12BC095F12CC096F172
:10679C002DC097F178C12AF079C12BF07AC12CF079
:1067AC007BC12DF094C12EF095C12FF096C130F025
:1067BC0097C131F04FEC0DF02AC064F12BC065F19C
:1067CC002CC066F12DC067F19CC111F09DC112F077
:1067DC009EC113F09FC114F0000E156E400E166E84
:1067EC00760E176E3F0E186EF7EC18F011C020F1F4
:1067FC0012C021F113C022F114C023F14F0E156EFB
:10680C00380E166E760E176E3F0E186E64C111F0B0
:10681C0065C112F066C113F067C114F0F7EC18F003
:10682C0011C005F012C006F013C007F014C008F038
:10683C00C60E156E230E166EF60E176EB80E186E6B
:10684C009CC111F09DC112F09EC113F09FC114F0B8
:10685C00F7EC18F011C001F012C002F013C003F0F5
:10686C0014C004F00CEC1BF001C058F102C059F13B
:10687C0003C05AF104C05BF158C101F059C102F0D8
:10688C005AC103F05BC104F0A0C14BF0A1C14CF0A4
:10689C00D8904B364C36D8904B364C36840E4B2415
:1068AC00F66E7E0E4C20F76E0900F5CF05F0090050
:1068BC00F5CF06F00900F5CF07F00A00F5CF08F088
:1068CC000CEC1BF001C024F102C025F103C026F131
:1068DC0004C027F17CC101F07DC102F07EC103F040
:1068EC007FC104F0010EFBEC11F001C0B0F102C04D
:1068FC00B1F103C0B2F104C0B3F124C105F025C15C
:10690C0006F026C107F027C108F020C101F021C113
:10691C0002F022C103F023C104F00CEC1BF001C007
:10692C0058F102C059F103C05AF104C05BF1A0C187
:10693C004BF0A1C14CF0D8904B364C36D8904B361E
:10694C004C368C0E4B24F66E7E0E4C20F76E0900E6
:10695C00F5CF05F00900F5CF06F00900F5CF07F0EB
:10696C000A00F5CF08F058C101F059C102F05AC124
:10697C0003F05BC104F00CEC1BF001C008F102C089
:10698C0009F103C00AF104C00BF108C101F009C1FF
:10699C0002F00AC103F00BC104F0B0C105F0B1C1A3
:1069AC0006F0B2C107F0B3C108F00CEC1BF001C04B
:1069BC0080F102C081F103C082F104C083F180C177
:1069CC00B8F181C1B9F182C1BAF183C1BBF1B8C1CF
:1069DC0090F1B9C191F1BAC192F1BBC193F1000E22
:1069EC0001019015B86FF00E9115B96FFF0E92154D
:1069FC00BA6FFF0E9315BB6FB8C180F1B9C181F1AD
:106A0C00BAC182F1BBC183F1B0C12EF0B1C12FF07C
:106A1C00B2C130F0B3C131F080C12AF081C12BF08A
:106A2C0082C12CF083C12DF04FEC0DF02AC094F1F3
:106A3C002BC095F12CC096F12DC097F1A0C14BF055
:106A4C00A1C14CF0D8904B364C36D8904B364C36C6
:106A5C008C0E4B24F66E7E0E4C20F76E0900F5CF93
:106A6C002EF00900F5CF2FF00900F5CF30F00A0019
:106A7C00F5CF31F094C12AF095C12BF096C12CF0D2
:106A8C0097C12DF04FEC0DF02AC040F12BC041F115
:106A9C002CC042F12DC043F120C12EF021C12FF0AA
:106AAC0022C130F023C131F040C12AF041C12BF09A
:106ABC0042C12CF043C12DF04FEC0DF02AC00CF16B
:106ACC002BC00DF12CC00EF12DC00FF124C12AF0FA
:106ADC0025C12BF026C12CF027C12DF00CC12EF0B6
:106AEC000DC12FF00EC130F00FC131F04FEC0DF095
:106AFC002AC01CF12BC01DF12CC01EF12DC01FF1A2
:106B0C008CC0B8F18DC0B9F18EC0BAF18FC0BBF199
:106B1C00B8C190F1B9C191F1BAC192F1BBC193F175
:106B2C00000E01019015B86FF00E9115B96FFF0EA4
:106B3C009215BA6FFF0E9315BB6FB8C128F1B9C18E
:106B4C0029F1BAC12AF1BBC12BF180C115F081C169
:106B5C0016F082C117F083C118F028C12EF029C19C
:106B6C002FF02AC130F02BC131F08CC02AF08DC02F
:106B7C002BF08EC02CF08FC02DF04FEC0DF02AC0F6
:106B8C0011F02BC012F02CC013F02DC014F0F7EC48
:106B9C0018F011C010F112C011F113C012F114C091
:106BAC0013F110C101F011C102F012C103F013C1B5
:106BBC0004F01CC115F01DC116F01EC117F01FC149
:106BCC0018F08CC011F08DC012F08EC013F08FC075
:106BDC0014F0F7EC18F011C005F012C006F013C059
:106BEC0007F014C008F00CEC1BF001C064F102C0FB
:106BFC0065F103C066F104C067F128C111F029C129
:106C0C0012F02AC113F02BC114F080C115F081C110
:106C1C0016F082C117F083C118F0F7EC18F011C010
:106C2C009CF112C09DF113C09EF114C09FF164C180
:106C3C0001F065C102F066C103F067C104F09CC1AC
:106C4C0005F09DC106F09EC107F09FC108F00CEC49
:106C5C001BF001C0B4F102C0B5F103C0B6F104C021
:106C6C00B7F1B4C1B8F1B5C1B9F1B6C1BAF1B7C198
:106C7C00BBF1B8C1ACF1B9C1ADF1BAC1AEF1BBC198
:106C8C00AFF10101AFBF57EF36F0AC05000EAD59B7
:106C9C00000EAE59430EAF59D8A057EF36F059EF4E
:106CAC0036F08FEF36F0CA0E156EF20E166E490ED8
:106CBC00176E710E186E88C111F089C112F08AC15D
:106CCC0013F08BC114F0F7EC18F011C0A4F112C042
:106CDC00A5F113C0A6F114C0A7F1A4C111F0A5C170
:106CEC0012F0A6C113F0A7C114F0CA0E156EF20E65
:106CFC00166E490E176E710E186EF7EC18F011C067
:106D0C0088F012C089F013C08AF014C08BF053EFD6
:106D1C003CF0430EAF19AC11AD11AE11D8A499EFE4
:106D2C0036F09BEF36F00EEF37F09CC12EF09DC184
:106D3C002FF09EC130F09FC131F0B4C12AF0B5C123
:106D4C002BF0B6C12CF0B7C12DF04FEC0DF02AC0D2
:106D5C0032F02BC033F02CC034F02DC035F03C0E8B
:106D6C00056EAA0E066E380E076E330E086E64C1E1
:106D7C0001F065C102F066C103F067C104F00CECD0
:106D8C001BF001C036F002C037F003C038F004C06D
:106D9C0039F06FEC10F0D8B0D6EF36F0D8EF36F003
:106DAC00D0EF37F0CA0E156EF20E166E490E176E36
:106DBC00710E186E88C111F089C112F08AC113F0DE
:106DCC008BC114F0F7EC18F011C0A4F112C0A5F1AE
:106DDC0013C0A6F114C0A7F1A4C111F0A5C112F003
:106DEC00A6C113F0A7C114F0CA0E156EF20E166EE2
:106DFC00490E176E710E186EF7EC18F011C088F072
:106E0C0012C089F013C08AF014C08BF053EF3CF021
:106E1C00FF0EAC154B6EFF0EAD154C6EFF0EAE1586
:106E2C004D6E7F0EAF154E6E4EBE29EF37F04B04F4
:106E3C00000E4C58160E4D58430E4E58D8A029EF44
:106E4C0037F02BEF37F061EF37F0600E156E420E16
:106E5C00166EA20E176E0D0E186E88C111F089C138
:106E6C0012F08AC113F08BC114F0F7EC18F011C0BA
:106E7C00A4F112C0A5F113C0A6F114C0A7F1A4C1CE
:106E8C0011F0A5C112F0A6C113F0A7C114F0600E49
:106E9C00156E420E166EA20E176E0D0E186EF7ECD6
:106EAC0018F011C088F012C089F013C08AF014C019
:106EBC008BF053EF3CF0160EAE1909E1C30EAF196F
:106ECC00AC11AD11D8A46DEF37F06FEF37F0D0EFF8
:106EDC0037F09CC12EF09DC12FF09EC130F09FC1A8
:106EEC0031F0B4C12AF0B5C12BF0B6C12CF0B7C14A
:106EFC002DF04FEC0DF02AC032F02BC033F02CC02B
:106F0C0034F02DC035F064C136F065C137F066C180
:106F1C0038F067C139F06FEC10F0D8A098EF37F06B
:106F2C009AEF37F0D0EF37F0600E156E420E166EFA
:106F3C00A20E176E0D0E186E88C111F089C112F0D9
:106F4C008AC113F08BC114F0F7EC18F011C0A4F146
:106F5C0012C0A5F113C0A6F114C0A7F1A4C111F081
:106F6C00A5C112F0A6C113F0A7C114F0600E156EE6
:106F7C00420E166EA20E176E0D0E186EF7EC18F070
:106F8C0011C088F012C089F013C08AF014C08BF0C5
:106F9C0053EF3CF0FF0E0101AC152C6FFF0EAD153D
:106FAC002D6FFF0EAE152E6F7F0EAF152F6F170EB8
:106FBC004B6E2CC14CF02DC14DF02EC14EF02FC19B
:106FCC004FF04B66ECEF37F0F4EF37F04F344F32B5
:106FDC004E324D324C324B2EE7EF37F0810E4C24B3
:106FEC000101A06FFF0E4D20A16FFF0E4E20A26F6E
:106FFC00FF0E4F20A36F000E7C6F000E7D6F000EF6
:10700C007E6F000E7F6F2FBF18EF38F02C05000E2F
:10701C002D59000E2E593F0E2F59D8A018EF38F0CD
:10702C001AEF38F0FAEF38F0A0C14BF0010E4B26F6
:10703C00000E4C6E000E4D6E800E4E6E000E4F6E9E
:10704C004B662BEF38F033EF38F04F344F324E3273
:10705C004D324C324B2E26EF38F00101AC514C2402
:10706C007C6FAD514D207D6FAE514E207E6FAF5178
:10707C004F207F6F810E4B6EFF0E4C6EFF0E4D6ED0
:10708C00FF0E4E6E170E4F6E7CC150F07DC151F04D
:10709C007EC152F07FC153F04F6657EF38F05FEF6F
:1070AC0038F0533453325232513250324F2E52EF59
:1070BC0038F050504B240101A06F000E4C20A16FF2
:1070CC00000E4D20A26F000E4E20A36FA0C14BF0FE
:1070DC00FF0E4C6EFF0E4D6E7F0E4E6E000E4F6E01
:1070EC004B667BEF38F083EF38F04F344F324E3233
:1070FC004D324C324B2E76EF38F04C1C506E4D1CF2
:10710C00516E4E1C526E4F1C536E01017C5150142B
:10711C00B86F7D515114B96F7E515214BA6F7F51B3
:10712C005314BB6FB8C1B0F1B9C1B1F1BAC1B2F16E
:10713C00BBC1B3F1A05117084B6EFF0E7C154C6E02
:10714C00FF0E7D154D6E7F0E7E154E6E000E7F155B
:10715C004F6E000E4C10506E000E4D10516E800E86
:10716C004E10526E000E4F10536E4B66C0EF38F03F
:10717C00C8EF38F0533453325232513250324B2E16
:10718C00BBEF38F050C07CF151C07DF152C07EF1A4
:10719C0053C07FF10101AFBFD8EF38F0D6EF38F014
:1071AC00E0EF38F07F1F7E1F7D1F7C6D000E7D236E
:1071BC007E237F239CC12AF09DC12BF09EC12CF015
:1071CC009FC12DF0B0C12EF0B1C12FF0B2C130F083
:1071DC00B3C131F04FEC0DF02AC09CF12BC09DF1E6
:1071EC002CC09EF12DC09FF164C101F065C102F06D
:1071FC0066C103F067C104F09CC105F09DC106F0A7
:10720C009EC107F09FC108F00CEC1BF001C0B0F15F
:10721C0002C0B1F103C0B2F104C0B3F1B0C1B8F116
:10722C00B1C1B9F1B2C1BAF1B3C1BBF1B8C190F1FE
:10723C00B9C191F1BAC192F1BBC193F1000E010138
:10724C009015B86F800E9115B96FFF0E9215BA6F2D
:10725C00FF0E9315BB6FB8C1B0F1B9C1B1F1BAC192
:10726C00B2F1BBC1B3F1B0C111F0B1C112F0B2C1F6
:10727C0013F0B3C114F0000E156E720E166E310EB3
:10728C00176E3F0E186EF7EC18F011C074F112C0A7
:10729C0075F113C076F114C077F19CC12EF09DC12D
:1072AC002FF09EC130F09FC131F0B0C12AF0B1C1B6
:1072BC002BF0B2C12CF0B3C12DF04FEC0DF02AC065
:1072CC0094F12BC095F12CC096F12DC097F1180EAE
:1072DC00156E720E166E310E176E3F0E186E94C12F
:1072EC002EF095C12FF096C130F097C131F064C1EA
:1072FC002AF065C12BF066C12CF067C12DF04FEC64
:10730C000DF02AC011F02BC012F02CC013F02DC0C0
:10731C0014F0F7EC18F011C014F112C015F113C0F1
:10732C0016F114C017F114C101F015C102F016C109
:10733C0003F017C104F08C0E156EBE0E166EBF0E48
:10734C00176E350E186EB0C111F0B1C112F0B2C18A
:10735C0013F0B3C114F0F7EC18F011C005F012C023
:10736C0006F013C007F014C008F00CEC1BF001C0C1
:10737C0078F102C079F103C07AF104C07BF174C1D9
:10738C0001F075C102F076C103F077C104F078C149
:10739C0005F079C106F07AC107F07BC108F00CEC5E
:1073AC001BF001C0B4F102C0B5F103C0B6F104C0CA
