:020000040000FA
:040000002BEF33F0BF
:1064AF0002838283901200838083921200000E0277
:1064BF006E0A0E016E71EC32F01200036E5EEC325A
:1064CF00F05B500318816E83868394838800D0839A
:1064DF0098120076EF32F00106D8A00206015002A2
:1064EF0010D8A47DEF32F07FEF32F073EF32F0125D
:1064FF0000592ABF0E596487EF32F089EF32F08BC3
:10650F00EF32F0B80E596E000E01EC33F0120003AB
:10651F006E5EEC32F003C081FF8396839483880014
:10652F000E026E010E016E71EC32F08398120005AF
:10653F006E080E0560A6EF32F0A8EF32F0AEEF3224
:10654F00F00550B80F596E000E01EC33F012003108
:10655F0032334134353642373839432A30234401F8
:10656F0000040001002800414443423539374320DD
:10657F0020203101500302F3CF05F0F4CF06F001D4
:10658F00500402F350062602500302F3500626056C
:10659F00C001F006C002F01200DFEF32F0010E0270
:1065AF006E2C0E016E71EC32F00306D8A0040603B8
:1065BF00500410D8A4E6EF32F0E8EF32F0D6EF3205
:1065CF00F01200F4EF32F00AC0D9FF0BC0DAFFDF90
:1065DF0050EAEC35F00A4A0B2A0AC0D9FF0BC0DA91
:1065EF00FFDF50D8A4FEEF32F000EF33F0EBEF32C5
:1065FF00F01200046E0450D8B408EF33F00AEF33F2
:10660F00F012EF33F00404D8A410EF33F012EF338D
:10661F00F02AEF33F00450D8A418EF33F01AEF3309
:10662F00F01EEF33F058EC32F020EF33F05BEC322A
:10663F00F004C058F0400E5A6E59508FEC32F05A99
:10664F00508FEC32F012005E0EF66E650EF76E0094
:10665F000EF86E00EE60F010EE24F00900F5CFEEAC
:10666F00FFE550E150FAE1AF0EF66E640EF76E00E3
:10667F000EF86E0900F5CF5FF000EE84F0160EEE07
:10668F006AE806FDE100EE58F0070EEE6AE806FD37
:10669F00E1000EF86E0001ABEF3AF0000E456E0010
:1066AF000E446E4450060DF350280F096E010E9ADA
:1066BF00EC34F0F50E2A6E7F0E2B6EB7EC38F0002F
:1066CF000E00019D6F280E9C6F000E716F010E70F2
:1066DF006F444A452A45BE7EEF33F0455009E10429
:1066EF000E445CD8A07EEF33F080EF33F059EF33D8
:1066FF00F01200000E936EE00E951658EC32F03F3C
:10670F000E8FEC32F05BEC32F03F0E8FEC32F0007C
:10671F000E046E0A0E036ED4EC32F058EC32F0C059
:10672F000E8FEC32F05BEC32F0C00E8FEC32F000DB
:10673F000E01EC33F0AEEC33F0000E586EB80E597C
:10674F006E400E5A6E000E01EC33F01200000E0771
:10675F006E58EC32F0400E8FEC32F00750B80F8FBE
:10676F00EC32F0000E066E400E0618D8A4C2EF33BE
:10677F00F0C4EF33F0CDEF33F05BEC32F0400E8F1F
:10678F00EC32F00750B80F8FEC32F0000E65EC32A0
:10679F00F0062A7F0E0664D7EF33F0D9EF33F0BB44
:1067AF00EF33F0072A070E0764E0EF33F0E2EF3321
:1067BF00F0B0EF33F0000E9FEC32F0120080BAEB26
:1067CF00EF33F0EDEF33F0F3EF33F0000E026E0125
:1067DF000E016E1EEF34F084B0F8EF33F0FAEF33A2
:1067EF00F000EF34F0000E026E020E016E1EEF3459
:1067FF00F084B205EF34F007EF34F00DEF34F00012
:10680F000E026E030E016E1EEF34F084B412EF34DD
:10681F00F014EF34F01AEF34F0000E026E040E0194
:10682F006E1EEF34F0000E026E000E016E12003974
:10683F00EF34F0000E026E000E016E57EF34F000D1
:10684F000E026E010E016E57EF34F0000E026E0253
:10685F000E016E57EF34F0000E026E030E016E57ED
:10686F00EF34F001C003F002C004F00450000AD866
:10687F00B444EF34F057EF34F00350020AD8B42188
:10688F00EF34F0060AD8B427EF34F00C0AD8B42D41
:10689F00EF34F0180AD8B433EF34F057EF34F01266
:1068AF0000000E086E58EC32F0400E8FEC32F008FC
:1068BF0050B80F8FEC32F0000E076E400E0718D84D
:1068CF00A46CEF34F06EEF34F077EF34F05BEC3212
:1068DF00F0400E8FEC32F00850B80F8FEC32F0040E
:1068EF00C0F6FF05C0F7FF06C0F8FF0800F55065BA
:1068FF00EC32F0010E0426000E0522000E062207D0
:10690F002A7F0E07648EEF34F090EF34F065EF348A
:10691F00F0082A070E086497EF34F099EF34F05A15
:10692F00EF34F012000A6E080E0A60A1EF34F0A3E4
:10693F00EF34F0DDEF34F0810E0960A9EF34F0ABE6
:10694F00EF34F0DDEF34F009C001F0026A000E04FD
:10695F006E400E036E88EC35F001500B6E09C001CE
:10696F00F0026A000E046E3F0E036E30EC35F0013C
:10697F0050096E0B50D8A4C7EF34F0C9EF34F0CDE7
:10698F00EF34F058EC32F0CFEF34F05BEC32F00B29
:10699F00C058F00A50B809596E095040095A6E5A3A
:1069AF00508FEC32F059508FEC32F01200000E097C
:1069BF006E000E0A6E000E0B6E000E0C6E0550066A
:1069CF001007100810D8B4EFEF34F0F1EF34F027C0
:1069DF00EF35F0010E0D6EFBEF34F0D89005360653
:1069EF0036073608360D2A08AE00EF35F002EF35C0
:1069FF00F0F5EF34F0D89009360A360B360C360521
:106A0F0050015C065002580750035808500458D8DC
:106A1F00A014EF35F016EF35F01FEF35F0055001EC
:106A2F005E0650025A0750035A0850045A0980D87C
:106A3F009008320732063205320D2E02EF35F0097B
:106A4F00C001F00AC002F00BC003F00CC004F0123A
:106A5F0000000E066E02BE39EF35F037EF35F03F0E
:106A6F00EF35F0016C021ED8B0022A010E066E043B
:106A7F00BE46EF35F044EF35F04AEF35F0036C04C6
:106A8F001ED8B0042A03500410D8B451EF35F05378
:106A9F00EF35F077EF35F0010E056E5BEF35F0D87F
:106AAF009003360436052A04AE60EF35F062EF35F9
:106ABF00F057EF35F00350015C04500258D8A06B2B
:106ACF00EF35F06DEF35F071EF35F00350015E04E7
:106ADF0050025AD89004320332052E62EF35F00679
:106AEF0050D8B47DEF35F07FEF35F083EF35F001FF
:106AFF006C021ED8B0022A01C001F002C002F012CF
:106B0F0000000E066E04BE91EF35F08FEF35F09753
:106B1F00EF35F0036C041ED8B0042A010E066E0286
:106B2F00BE9EEF35F09CEF35F0A4EF35F0016C020F
:106B3F001ED8B0022A010E061A000E086E000E07AC
:106B4F006E03500410D8B4AFEF35F0B1EF35F0D974
:106B5F00EF35F0010E056EB9EF35F0D8900336041E
:106B6F0036052A04AEBEEF35F0C0EF35F0B5EF3580
:106B7F00F0D890073608360350015C04500258D8FD
:106B8F00A0CCEF35F0CEEF35F0D3EF35F003500159
:106B9F005E0450025A0780D89004320332052EC08B
:106BAF00EF35F00650D8B4DFEF35F0E1EF35F0E513
:106BBF00EF35F0076C081ED8B0082A07C001F0089F
:106BCF00C002F01200096E000E086E5804D8A4F32C
:106BDF00EF35F0F5EF35F00AEF36F05A50056E0647
:106BEF006A050E0526000E062206BE0AEF36F006CF
:106BFF005007E1800E055CD8B008EF36F00AEF368B
:106C0F00F013EF36F00A0E0918D8A411EF36F0136F
:106C1F00EF36F015EF36F080EC32F00A0E0918D887
:106C2F00B41CEF36F01EEF36F05CEF36F00950E093
:106C3F000F096E5850D8A427EF36F029EF36F035EC
:106C4F00EF36F0800E5A18D8A430EF36F032EF3608
:106C5F00F035EF36F0010E01EC33F00950050D7FE2
:106C6F000E056E7D0E066EF3500526F450062208B3
:106C7F00500526000E062205C0F6FF06C0F7FF08D6
:106C8F0000F5CF07F0075065EC32F05A2A082A05B5
:106C9F000E0818D8A456EF36F058EF36F021EF361D
:106CAF00F0000E65EC32F05A2A12004AC009F04883
:106CBF00509AEC34F047BE71EF36F0475046100B48
:106CCF00E1ED0E445C020E4558D8A071EF36F0731B
:106CDF00EF36F080EF36F0960E2A6E7F0E2B6EB7E2
:106CEF00EC38F0000E00018F6F000E8E6F85EF37BE
:106CFF00F047BE8FEF36F0475046100BE1CC0E44F5
:106D0F005C020E4558D8A08FEF36F091EF36F0B3F6
:106D1F00EF36F047BEA2EF36F04750461009E1DBE1
:106D2F000E445C020E4558D8B0A0EF36F0A2EF36F5
:106D3F00F0B3EF36F0B80E2A6E7F0E2B6EB7EC382D
:106D4F00F0000E00018F6F010E8E6F100E8C272733
:106D5F000E8D2385EF37F047BEC2EF36F047504612
:106D6F00100BE1A90E445C020E4558D8A0C2EF36B5
:106D7F00F0C4EF36F0E6EF36F047BED5EF36F0470A
:106D8F0050461009E1C70E445C020E4558D8B0D3E7
:106D9F00EF36F0D5EF36F0E6EF36F0A70E2A6E7F1E
:106DAF000E2B6EB7EC38F0000E00018F6F020E8EB7
:106DBF006F880E8C27130E8D2385EF37F047BEF5A6
:106DCF00EF36F0475046100BE18B0E445C020E4538
:106DDF0058D8A0F5EF36F0F7EF36F019EF37F04748
:106DEF00BE08EF37F04750461009E1A90E445C0288
:106DFF000E4558D8B006EF37F008EF37F019EF37D8
:106E0F00F0830E2A6E7F0E2B6EB7EC38F0000E005B
:106E1F00018F6F030E8E6FD00E8C27070E8D23857B
:106E2F00EF37F047BE28EF37F0475046100BE14BD6
:106E3F000E445C010E4558D8A028EF37F02AEF37E3
:106E4F00F04CEF37F047BE3BEF37F0475046100995
:106E5F00E1730E445C010E4558D8B039EF37F03B63
:106E6F00EF37F04CEF37F05A0E2A6E7F0E2B6EB7BE
:106E7F00EC38F0000E00018F6F040E8E6FE80E8C51
:106E8F0027030E8D2385EF37F047BE5AEF37F047B4
:106E9F00504610451009E1650E445CD8A05AEF37F3
:106EAF00F05CEF37F07DEF37F047BE6CEF37F04710
:106EBF00504610451007E1A60E445CD8B06AEF3774
:106ECF00F06CEF37F07DEF37F06F0E2A6E7F0E2BE1
:106EDF006EB7EC38F0000E00018F6F050E8E6FF459
:106EEF000E8C27010E8D2385EF37F0C70E2A6E7F8C
:106EFF000E2B6EB7EC38F079EF36F01200286E02D9
:106F0F000E2818D8A48EEF37F090EF37F0CFEF3769
:106F1F00F0C5EF37F012C013F0FF0E1326010E1459
:106F2F006E156A166A176A132AA3EF37F0D89014F2
:106F3F0036153616361736132E9EEF37F00E5014C1
:106F4F0014186E0F501514196E105016141A6E1166
:106F5F005017141B6E185019101A101B10D8A4BB01
:106F6F00EF37F0BEEF37F0010EBFEF37F0000E290D
:106F7F006E2950300FEAEC35F012061250D8A4CB20
:106F8F00EF37F0CDEF37F092EF37F0B6EF38F00E76
:106F9F00500F1010101110D8A4D8EF37F0DAEF37C8
:106FAF00F0F5EF37F0000E296EE2EF37F0300EEA12
:106FBF00EC35F0292A1250295CD8B0E9EF37F0EB05
:106FCF00EF37F0B6EF38F0090E2964F1EF37F0F331
:106FDF00EF37F0DEEF37F0B6EF38F0000E296E52D4
:106FEF00EF38F00E500F1010101110D8B402EF3808
:106FFF00F004EF38F037EF38F01C0E2924D96EDA91
:10700F006A000EDA220EC001F00FC002F010C003AA
:10701F00F011C004F02850056E066A076A086ADE90
:10702F00EC34F001502802F3500E5CDF6E0EC001FD
:10703F00F00FC002F010C003F011C004F02850058B
:10704F006E066A076A086ADEEC34F001C00EF002C1
:10705F00C00FF003C010F004C011F051EF38F01260
:10706F0028D8B43DEF38F03FEF38F0AEEF38F00AE4
:10707F000E126445EF38F047EF38F049EF38F0AEB5
:10708F00EF38F01C0E2924D96EDA6A000EDA2200CE
:10709F000EDF6E292A1250295CD8A059EF38F05B09
:1070AF00EF38F0F9EF37F0AEEF38F0FF0E136EFF59
:1070BF000E146E2950156E166A135015261450169D
:1070CF00221C0E1524D96E000E1620DA6E0A0EDF62
:1070DF006074EF38F076EF38F091EF38F0FF0E1361
:1070EF006EFF0E146E2950156E166A135015261466
:1070FF005016221C0E1524D96E000E1620DA6EDFE4
:10710F0050176E300E1724266E276A000E2722AAFC
:10711F00EF38F0FF0E136EFF0E146E2950156E161A
:10712F006A13501526145016221C0E1524D96E0002
:10713F000E1620DA6EDF50176E370E1724266E27C5
:10714F006A000E27222650EAEC35F029062950D87E
:10715F00A4B4EF38F0B6EF38F05DEF38F012002C32
:10716F000E426E000E436E2AC03EF02BC03FF09CC5
:10717F00EF3AF03EC0F6FF3FC0F7FF0800F5CF40F3
:10718F00F0250E4018D8A4CFEF38F0D1EF38F09794
:10719F00EF3AF03E4A3F2A3EC0F6FF3FC0F7FF08E6
:1071AF0000F5CF40F02F0E4064E0EF38F0E2EF38FB
:1071BF00F00FEF39F03A0E4060E8EF38F0EAEF38B1
:1071CF00F00FEF39F0000E416EFDEF38F041500A2D
:1071DF000DF3504024D00F416E3E4A3F2A3EC0F679
:1071EF00FF3FC0F7FF0800F5CF40F02F0E406403BC
:1071FF00EF39F005EF39F012EF39F0390E40640B2B
:10720F00EF39F00DEF39F0EEEF38F04CEF3AF04187
:10721F00684CEF3AF04CEF3AF042C0D9FF43C0DA76
:10722F00FFDF50406E020E4226000E43224050EA0E
:10723F00EC35F09AEF3AF042C0D9FF43C0DAFFDEE7
:10724F00CF34F0DDCF35F0020E4226000E4322354B
:10725F00BE36EF39F034EF39F03DEF39F0346C359D
:10726F001ED8B0352A2D0EEAEC35F034C00EF035AD
:10727F00C00FF0000E0FBEFF0E106E116E41C01248
:10728F00F00A0E86EC37F09AEF3AF042C0D9FF437E
:10729F00C0DAFFDECF36F0DDCF37F0020E42260028
:1072AF000E432237BE60EF39F05EEF39F067EF39EA
:1072BF00F0366C371ED8B0372A2D0EEAEC35F03683
:1072CF00C00EF037C00FF0000E0FBEFF0E106E1184
:1072DF006E41C012F00A0E86EC37F09AEF3AF04288
:1072EF00C0D9FF43C0DAFFDECF3CF0DDCF3DF00267
:1072FF000E4226000E43223CC00EF03DC00FF01090
:10730F006A116A41C012F00A0E86EC37F09AEF3A12
:10731F00F042C0D9FF43C0DAFFDECF38F0DECF39FD
:10732F00F0DECF3AF0DECF3BF0040E4226000E43E4
:10733F002238C00EF039C00FF03AC010F03BC01128
:10734F00F041C012F00A0E86EC37F09AEF3AF04295
:10735F00C0D9FF43C0DAFFDECF3CF0DDCF3DF002F6
:10736F000E4226000E43223CC00EF03DC00FF0101F
:10737F006A116A41C012F0100E86EC37F09AEF3A9C
:10738F00F042C0D9FF43C0DAFFDECF38F0DECF398D
:10739F00F0DECF3AF0DECF3BF0040E4226000E4374
:1073AF002238C00EF039C00FF03AC010F03BC011B8
:1073BF00F041C012F0100E86EC37F09AEF3AF0421F
:1073CF00C0D9FF43C0DAFFDECF3CF0DDCF3DF00286
:1073DF000E4226000E43224128D8A4F9EF39F0FBC4
:1073EF00EF39F0FDEF39F0100E416E3CC00EF03D5D
:1073FF00C00FF0106A116A41C012F0020E86EC370E
:10740F00F09AEF3AF042C0D9FF43C0DAFFDECF382F
:10741F00F0DECF39F0DECF3AF0DECF3BF0040E4294
:10742F0026000E43224128D8A420EF3AF022EF3A4B
:10743F00F024EF3AF0100E416E38C00EF039C00F45
:10744F00F03AC010F03BC011F041C012F0020E86AE
:10745F00EC37F09AEF3AF042C0D9FF43C0DAFFDEC3
:10746F00CF32F0DDCF33F0020E4226000E43223230
:10747F00C00AF033C00BF0E9EC32F09AEF3AF02586
:10748F000EEAEC35F09AEF3AF04050306E316A3137
:10749F0050000AD8B456EF3AF09AEF3AF030502530
:1074AF000AD8B447EF3AF0670AD8B40AEF3AF001B6
:1074BF000AD8B414EF39F0070AD8B44DEF39F002F7
:1074CF000AD8B495EF3AF0150AD8B433EF3AF0066C
:1074DF000AD8B490EF39F00D0AD8B4C8EF39F03AA2
:1074EF000AD8B4E7EF39F0010AD8B414EF39F0072E
:1074FF000AD8B423EF39F0020AD8B49AEF3AF0154C
:10750F000AD8B433EF3AF0060AD8B477EF39F00D52
:10751F000AD8B4AFEF39F09AEF3AF09AEF3AF04059
:10752F0050EAEC35F03E4A3F2A3EC0F6FF3FC0F727
:10753F00FF0800F5500009D8A4A8EF3AF0AAEF3AD7
:10754F00F0C1EF38F01200000E00019D6F280E9C65
:10755F006F000E9B6F010E9A6F210E926E070E96A3
:10756F006E94680E0EC16E010EC26EB10EC06E81AA
:10757F00EC33F0850EF66E790EF76E0800F5504C71
:10758F006E4D6A4E6A4CC004F04DC005F04EC006F9
:10759F00F058EC34F082A0D7EF3AF0D9EF3AF0C1BF
:1075AF00EF3AF0010EC26EB10EC06EC282C2A2E3FC
:1075BF00EF3AF0E5EF3AF0F9EF3AF0C450FF0DF380
:1075CF00CF4CF0F4CF4DF0C3504C26000E4D224C53
:1075DF00C084F04DC085F00001000E85BFFF0E8600
:1075EF006F876F000E096E000E9AEC34F0E00E2AD2
:1075FF006E7F0E2B6E84C02CF085C02DF086C02EB2
:10760F00F087C02FF0B7EC38F084C044F085C04548
:10761F00F086C046F087C047F0000E496E050E4851
:10762F006E000E4B6E000E4A6E5DEC36F0C2905F30
:10763F0050FF0A0001996F99C080FFE6EC33F0010B
:10764F00C05CF002C05DF05FC001F0026A1FEC3455
:10765F00F001C094F002C095F0FF0E5C240001927F
:10766F006FFF0E5D20936F5CC090F05DC091F000D6
:10767F000E096E010E9AEC34F0F00E2A6E7F0E2B6F
:10768F006EB7EC38F05DBE55EF3BF05D5008E15C36
:10769F0004D8A055EF3BF057EF3BF073EF3CF000F1
:1076AF00019DBF66EF3BF09D5107E1400E9C5DD8F9
:1076BF00B064EF3BF066EF3BF0B5EF3BF09CC009D9
:1076CF00F09A519AEC34F094C04CF095C04DF0D82C
:1076DF00904C364D36D8904C364D36600E4E6E006F
:1076EF000E4F6E4C504E264D504F22000192514E70
:1076FF0024D96E93514F20DA6EDF505E6EFB0E2A47
:10770F006E7F0E2B6E5EC02CF02D6AB7EC38F0003A
:10771F000E00019B6F010E9A6F060E9C27000E9DA7
:10772F0023870E7025D96E000E7121DA6E5EC0DFD1
:10773F00FF704B712BE6EC33F001C05CF002C05DC3
:10774F00F05C500001901909E15D509119D8B4B364
:10775F00EF3BF0B5EF3BF0A2EF3BF071BFC1EF3B5A
:10776F00F0715109E1050E705DD8A0C1EF3BF0C378
:10777F00EF3BF073EF3CF0000E516E000E506E00B9
:10778F000E096E030E9AEC34F0000E536E000E527B
:10779F006E000E576E000E566E52C001F053C002AF
:1077AF00F0000E046E030E036EC1EC32F0780E4C37
:1077BF006E000E4D6E01504C2602504D2256504C0D
:1077CF0024D96E57504D20DA6EDF50546E880E500C
:1077DF0024D96E000E5120DA6EDF50556E57BE025F
:1077EF00EF3CF0575009E1030E565CD8A002EF3C76
:1077FF00F004EF3CF006EF3CF0504A512A5450553C
:10780F0018D8B40DEF3CF00FEF3CF03AEF3CF0E836
:10781F000E2A6E7F0E2B6EB7EC38F0000E096E033A
:10782F000E9AEC34F0FB0E2A6E7F0E2B6E54C02C8A
:10783F00F02D6AB7EC38F0FB0E2A6E7F0E2B6E55CB
:10784F00C02CF02D6AB7EC38F0110E4D6E3C0E4C7B
:10785F006ECB0EE82EFED74C2EFCD74D2EFAD7004E
:10786F00F053EF3CF0000E096E030E9AEC34F0FB70
:10787F000E2A6E7F0E2B6E54C02CF02D6AB7EC388B
:10788F00F0FB0E2A6E7F0E2B6E55C02CF02D6AB7B3
:10789F00EC38F02CEF3CF0564A572A57BE61EF3CBC
:1078AF00F0575009E1030E565CD8A061EF3CF0632E
:1078BF00EF3CF0D4EF3BF0524A532A53BE71EF3CEA
:1078CF00F0535009E1040E525CD8A071EF3CF073F5
:1078DF00EF3CF0D0EF3BF0000E096E020E9AEC3445
:1078EF00F0D60E2A6E7F0E2B6E70C02CF071C02D4D
:1078FF00F0B7EC38F082A087EF3CF089EF3CF098BE
:10790F00EF3CF0AEEC33F0000E096E000E9AEC3443
:10791F00F0F70E2A6E7F0E2B6EB7EC38F0C1EF3AF0
:10792F00F082A29DEF3CF09FEF3CF0A1EF3CF055B1
:10793F00EC33F05F505F245F6E0001964B972B97EF
:10794F00BFB3EF3CF0975109E1040E965DD8A0B399
:10795F00EF3CF0B5EF3CF0D9EF3AF0000E976F0027
:10796F000E966F020E5F6ED9EF3AF000EF00F00047
:10797F0000000000000000000000000000000000F8
:10798F000000000000000080C0E0E0F0F0F0F8F828
:10799F00FCFCFCFCFEFEFEFEFEFEFEFEFEFE7E7E00
:1079AF007E7CFCFCFCF8F8F0F0F0E0C0C08000003A
:1079BF0080C0E0E0F0F0F8F8FCFCFCFCFEFEFEFE00
:1079CF00FEFEFEFEFEFEFEFEFEFEFEFEFCFCFCF8D4
:1079DF00F8F8F0F0E0E0C0800000000000000000C8
:1079EF000000000000000000000000000000000088
:1079FF000000000000000000000000000000000078
:107A0F00C0E0F0F8FEFFFFFFFFFFFFFFFFFFFFFFEC
:107A1F00FFFF3F1F0F070381C1E0E0F0F0F0F8F820
:107A2F00F8F0F0F0F0E0E1C18307070F3F7FFFFFB1
:107A3F00FFFFFFFFFFFFFFFFFF0101010181FFFFBD
:107A4F000101010183FFFF0101010183FFFF01011B
:107A5F000101FFFFFFFFFFFFFFFEFCF8F0E08000DA
:107A6F000000000000000000000000000000000007
:107A7F0000000000000000000000000000E0FCFF1C
:107A8F00FFFFFFFFFFFFFFFFFFFFFFFFFFFFFFFFF7
:107A9F008700000000FCFFFFFFFFFFFFFFFFFFFF5E
:107AAF00FFFFFFFFFFFFFFFFFFFE3800000003FF98
:107ABF00FF71717171717171FFF9F9F9FFFFFFFFBB
:107ACF00FFFFFFFFFFFFFFFFFFFFFFFFFFFFFFFFB7
:107ADF00FFFFFF71717171717171FFFFFFFFFFFF89
:107AEF00F8C00000000000000000000000000000CF
:107AFF000000000000000000000000007CFFFFFFFE
:107B0F00FFFFFFFFFFFFFFFFFFFFFFFFFFFFFFFF76
:107B1F00FFFC7060000003070F0F1F1F3F3F3F3F29
:107B2F003F3F3F3F1F1F0F070381C0E0F0FCFFFFE8
:107B3F00FF1C181818181818FFFFFFFFFFFFFFFF93
:107B4F00FFFFFFFFFFFFFFFFFFFFFFFFFFFFFFFF36
:107B5F00FFFFFF18181818181818FFFFFFFFFFFF77
:107B6F00FFFF000000000000000000000000000008
:107B7F00000000000000000000000000000F7FFF69
:107B8F00FFFFFFFFFFFFFFFFFFFF7F3F1F0F0703FA
:107B9F0081C0E0F0F8FCFEFFFEFEFEFCFCFCFCFCEE
:107BAF00FCFCFCFCFEFEFEFFFFFFFFFFFFFFFFFFE5
:107BBF00FF86868686868686FFFFFFFFFFFFFFFF15
:107BCF00FFFFFFFFFFFFFFFFFFFFFFFFFFFFFFFFB6
:107BDF00FFFFFF86868686868686FFFFFFFFFF7F75
:107BEF001F03000000000000000000000000000064
:107BFF000000000000000000000000000000000175
:107C0F00030F1F3F7FEFC78381C0E0F0F8FCFEFF3B
:107C1F00FFFFFFFFFFFFFFFFFFFFFFFFFFFFFFFF65
:107C2F00FFFFFFFFFFFFFFFFFFFFFFFFFFFFFFFF55
:107C3F00FFFFFFFFFFFFFFFFFFC0C0C0C0C0FFFF80
:107C4F00C0C0C0C0C0FFFFC0C0C0C0C0FFFFC0C029
:107C5F00C0C0FFFFFFFFFFFFFF7F3F1F0F030100AC
:107C6F000000000000000000000000000000000005
:107C7F0000000000000000000000008080808000F5
:107C8F0000000000000001010307070F0F9F1F3FB7
:107C9F003F3F7F7F7F7F7F7F7F7F7F7F7F7F7FFFE5
:107CAF00FFFFBF3F3F3F1F1F0F0F0707038101005C
:107CBF0001010307070F0F1F1F1F3F3FBF3F7F7FAD
:107CCF007F7FFF7F7F7F7F7F7F7F3F3F3F3F9F1F75
:107CDF001F0F0F0707030101000000000000000045
:107CEF000000000000000000000000000000000085
:107CFF0000000000000000000000007F444444002A
:107D0F004266181C664000FE42427E00007F003C27
:107D1F0042423C00007E0202003C4A4A6E00007F55
:107D2F0044444400007E02027C02027C007F4242F7
:107D3F007E00003C4A4A6E00003C42427F00003CFD
:107D4F0042427F00003C4A4A6E00003C42427F00A4
:107D5F00004000003C42424224003C42423C0000B2
:107D6F007E02027C02027C00000000000000000086
:107D7F00000000000000002F0000000700070014A3
:107D8F007F147F14242A7F2A122313086462364932
:107D9F005522500005030000001C22410000412223
:107DAF001C0014083E081408083E08080000A060D4
:107DBF00000808080808006060000020100804028E
:107DCF003E5149453E00427F4000426151494621A4
:107DDF0041454B311814127F1027454545393C4A10
:107DEF004949300171090503364949493606494960
:107DFF00291E0036360000005636000008142241B6
:107E0F00001414141414004122140802015109061D
:107E1F00324959513E7C1211127C7F494949363EF5
:107E2F00414141227F4141221C7F494949417F09FC
:107E3F000909013E4149497A7F0808087F00417FBF
:107E4F0041002040413F017F081422417F404040C4
:107E5F00407F020C027F7F0408107F3E4141413E6C
:107E6F007F090909063E4151215E7F0919294646BE
:107E7F004949493101017F01013F4040403F1F20E7
:107E8F0040201F3F4038403F6314081463070870B9
:107E9F0008076151494543007F41410055AA55AA42
:107EAF00550041417F0004020102048080808080E0
:107EBF00800000000020545454787F4844443838E0
:107ECF0044444420384444487F3854545418087E5E
:107EDF0009010218A4A4A47C7F0804047800447D3F
:107EEF0040004080847D007F1028440000417F4087
:107EFF00007C041804787C0804047838444444381F
:107F0F00FC2424241818242418FC7C080404084892
:107F1F0054545420043F4440203C4040207C1C20BB
:107F2F0040201C3C4030403C44281028441CA0A05A
:107F3F00A07C4464544C4400107C82003F0000003D
:107F4F000000827C100000060909060A436F6C6F5F
:107F5F00723A205665726465204F736375726F00B5
:107F6F000A436F6C6F723A20417A756C204F7363BE
:107F7F0075726F000A436F6C6F723A20417A756C9D
:107F8F0020436C61726F000A2D3E204E6F204861B6
:107F9F0079205461706121000A436F6C6F723A202F
:107FAF00416D6172696C6C6F000A436F6C6F723A4E
:107FBF0020426C616E636F000A53696E2050726FBE
:107FCF00746563746F7200436F6E743A2025316469
:107FDF00004C44523A202564004E6F2050726F645B
:107FEF0000436F64653A20004F464600256300004A
:020000040020DA
:08000000FFFFFFFFFFFFFFFF00
:020000040030CA
:0E000000000C011EFF8180FF0FC00FE00F40BB
:00000001FF
